:020000040800F2
:10000000B00700209D010008D7230008D51E000876
:10001000D5230008850200087D2C000800000000A0
:10002000000000000000000000000000AD260008F5
:10003000E703000800000000F9230008B1260008CB
:10004000B7010008B7010008B7010008B7010008B0
:10005000B7010008B7010008B7010008B7010008A0
:10006000B7010008B7010008B7010008B701000890
:10007000B7010008710300087D0300088903000828
:10008000B7010008B7010008B7010008B701000870
:10009000B7010008B7010008B701000817040008FD
:1000A000B7010008B7010008B7010008B701000850
:1000B000B7010008B7010008B7010008B701000840
:1000C000B7010008B7010008B7010008B701000830
:1000D000B7010008B7010008B7010008B701000820
:1000E000E9030008B7010008B7010008B7010008DC
:1000F000B7010008B7010008B7010008B701000800
:10010000B7010008B7010008B7010008B7010008EF
:10011000B7010008B7010008B7010008B7010008DF
:10012000B7010008B7010008B7010008B7010008CF
:10013000950300088902000895020008B70100082D
:10014000B7010008B7010008B7010008B7010008AF
:10015000A1030008AD030008B7010008B7010008BB
:10016000B7010008B7010008B7010008B70100088F
:10017000B7010008B70100080000000000000000FF
:10018000B7010008B7010008DFF80CD000F068F8EC
:1001900000480047A12C0008B0070020064880470F
:1001A00006480047FEE7FEE7FEE7FEE7FEE7FEE75C
:1001B000FEE7FEE7FEE7FEE7592700088901000891
:1001C0002DE9F05F0546002092469B46884606468C
:1001D000814640241BE0284641464746224600F01F
:1001E0002FF853465A46C01A914110D3114618466B
:1001F000224600F016F82D1A67EB01084F462246FA
:100200000120002100F00DF817EB00094E41201EDF
:10021000A4F10104DFDC484631462A464346BDE8E6
:10022000F09F202A04DB203A00FA02F100207047F8
:100230009140C2F1200320FA03F319439040704724
:10024000202A04DB203A21FA02F00021704721FA2B
:1002500002F3D040C2F12002914008431946704792
:10026000064C074D06E0E06840F0010394E8070003
:1002700098471034AC42F6D3FFF78AFF6C2E000883
:100280008C2E0008FEE70000014800F055BC00007D
:100290004C000020014800F04FBC0000A0000020EE
:1002A0001749884201D10020704715492031884202
:1002B00001D10120704712494031884201D102200A
:1002C00070470F496031884201D1032070470C49C3
:1002D0008031884201D1042070470949A031884209
:1002E00001D1052070470649C031884201D106205E
:1002F00070470349E0318842D5D10720704700009C
:1003000000600140426B0168002A0A6811D022F0A7
:1003100001020A6001680A6842F400220A6001686A
:100320000A6842F001020A6090F84C10032904D0D8
:1003300010E042F400320A600CE0816B21B90168E0
:100340000A6842F002020A6090F8401001290AD0BF
:100350000121816490F84C10012906D05FF004015E
:1003600080F84C107047416CF3E70221F8E7000079
:10037000014800F0A1BC0000DC010020014800F0B1
:100380009BBC00006C020020014800F095BC0000FE
:10039000B4020020014800F08FBC000024020020BD
:1003A000014800F089BC000044030020014800F02F
:1003B00083BC0000FC02002030B590F8444004F0FB
:1003C0001C050124AC40056C6C60046863608368A4
:1003D000102B036803D099600068C26030BD9A603A
:1003E0000068C16030BD704710B54FF4806000F008
:1003F00069FD4FF4006000F065FD4FF4005000F01F
:1004000061FD4FF4804000F05DFDBDE810404FF409
:10041000004000F057BD10B5202000F053FD4020F3
:1004200000F050FD802000F04DFDBDE810404FF47D
:10043000807000F047BD00002DE9F0470446407988
:10044000002715460E46012809D04FF0010984F80F
:100450000590022020713068042803D044E0022077
:10046000BDE8F0874FF003080DBB00F023FE074600
:1004700005E000BF00F01EFEC01B01280FD8206859
:10048000406B0004F6D4012000F00CFD2168B06937
:10049000086416E000F00EFEC01B012807D9206991
:1004A00040F00800206184F804800320D8E7206829
:1004B000406B0028EEDB012000F0F4FC2168B069FD
:1004C00048642068816C40F2FF32AA409143F2698F
:1004D000AA40114381642068C16CFF22AA40914365
:1004E000326AAA401143C1643069012808D12268E8
:1004F000916B1F20A84081437069A8400843906316
:100500002268D06B0721A9408843B368316819433A
:10051000F3681943A9400143D163206801684FF48F
:100520008042AA40914301602268116840F6FC7045
:10053000A84081437068A8400843106020680168A3
:10054000C022AA409143016084F8049000206071A9
:1005500086E770B5040003D02079002510B105E0CE
:10056000012070BD6571204600F008F8022020715E
:10057000256101202071002070BD00002DE9F04FA1
:1005800006460068274987B0884247D12648816DD2
:1005900041F000518165806D4FF0030B00F0005079
:1005A00005903020CDE9000B0025694602954FF0FB
:1005B000904000F093FC1E4C1C484FF01008206047
:1005C00006206060C4E902854FF48067C4E90675BF
:1005D0004FF0800A4FF480792562C4E904A92046CF
:1005E00000F0C8FB18B17F2112A002F048FBB460F4
:1005F000A662184C1648C4E90285C4E9067525624E
:10060000C4E9000BC4E904A9204600F0B3FB18B10B
:10061000902108A002F033FBF460A66207B0BDE8A9
:10062000F08F0000007400400010024030000240D3
:10063000DC0100202E2E2F5372632F73746D333222
:100640006C3478785F68616C5F6D73702E63000046
:10065000580402402402002018B504680094006881
:10066000104421B1143000900360002018BD083000
:10067000F9E730B54279012A12D0012242710223F2
:10068000037103681D6802FA01F425431D60002907
:1006900001680B6806D0C3F383430F2B0AD00DE02B
:1006A000022030BDC3F383030F2B07D14B6843F007
:1006B000010302E04B6843F002034B60027100212A
:1006C0004171084630BD704770B5040006D02068FF
:1006D000FFF7E6FD374D55F8200008B1012070BD49
:1006E000204600F06FF834480168491C016000683A
:1006F0003249012819D13248026822F08042026052
:100700000268A3681A430260026822F47F02026052
:100710002279012A05D10268A38901EB03431A4318
:100720000260026842F0004202602068026822F41F
:10073000714202602268106823691843D4E90536C3
:100740003343184310602068026822F00F020260F1
:10075000D4E907200243206803681A430260206836
:10076000826822F45F02826020688268636A1A43AA
:10077000238D01EB03410A4382602068416801F048
:1007800007014160E06A216B000240EAC101206874
:100790004268114341602068016841F080010160B6
:1007A000012084F834002068FFF77AFD45F82040E6
:1007B000002070BD8C0300202C0000200000FFFFF3
:1007C0000060014000B5114887B0416800291BD185
:1007D0000168491C0160012908D10D48016E41F0F2
:1007E00080710166006E00F0807005904FF42070FB
:1007F00000900220019000200290039006200490B7
:100800006946044800F06AFB07B000BD24000020E0
:1008100000100240001000487047704770B590F813
:100820004C400023C4B1FF2C16D0046825680C4E40
:100830003540256004686FF30F01012A256804D054
:1008400045EA01212160026307E04FF4802646EA71
:1008500001210D432560F6E70123184670BD000015
:10086000FFFFFBF870470068C06900F0070220F046
:10087000FF000A60C11700EB116000127047000012
:1008800070B5040031D03C492068884205D16068C9
:1008900001282AD0E068012827D0012500206564BE
:1008A0002063A5642065204600F06EF8206801688A
:1008B00021F400210160207A01282068016816D007
:1008C00021F000510160607A01282068016811D090
:1008D00021F4001101602068016846F2087291431A
:1008E0000160E068022808D00CE0012070BD41F0F2
:1008F0000051E7E741F40011ECE720680168626904
:1009000011430160207C0128206801682ED021F06D
:1009100010010160607C01282068016829D021F065
:100920002001016020684169144A1140416120683A
:100930004169E269124B1143228C03EB0242636A64
:100940005B1E1A431143416160686063E068A06305
:10095000A069E063207C84F840002068016841F0D1
:100960000101016084F84C50002070BD41F010017D
:10097000CFE741F02001D4E70061014000FF001CF7
:100980000000FFFF704700002DE9F043054637489F
:1009900087B00026416851BB0168491C01600129EC
:1009A00008D13348016E41F080710166006E00F09D
:1009B000807005904FF4207000900220CDE9010670
:1009C0000620CDE9036069462A4800F087FA002234
:1009D00011463D2000F0E8FB3D2000F0D9FB00224D
:1009E00011463E2000F0E0FB3E2000F0D1FB224902
:1009F000286880274FF400784FF40069884215D1A9
:100A00001F4C1E48C4E9000604F10C00A66080E8F3
:100A1000C003E6612046266200F0ACF918B1ED2172
:100A200018A002F02CF9EC62AC62A56212492868A9
:100A30008031884217D11148194C1430C4E900069E
:100A400004F10C00A66080E8C003E661204626623F
:100A500000F090F920B140F203110AA002F00FF962
:100A6000EC62AC62A56207B0BDE8F0832400002010
:100A700000100240001000480061014044000240A4
:100A80006C0200202E2E2F5372632F73746D33323D
:100A90006C3478785F68616C5F6D73702E630000F2
:100AA000B402002070B5044690F84C000D460228B0
:100AB00003D0042801D0012070BD00F0FBFA0646E7
:100AC00007E0681C05D000F0F5FA801BA84213D897
:100AD00095B1206880688007F3D52068806800079A
:100AE00007D5012020652046FFF7BCFE21680820BD
:100AF000C860206B10B10BE0032070BD606B38B98B
:100B000094F84C00022805D05FF0030084F84C00F4
:100B1000002070BD0120F9E7704710B590F84C1027
:100B20000024012904D0032902D00124204610BD4D
:100B3000FFF7E8FBFAE700002DE9F0410446006802
:100B4000816842680D074FF0010305D5150703D5ED
:100B50000821C160236507E04D070AD5550708D570
:100B60000421C160022020652046FFF77BFEBDE81E
:100B7000F0818D0719D5950717D52046FFF7CCFFD3
:100B8000206B0028F3D1606B0028F0D12068416809
:100B900021F00201416094F84C00022803D00320A8
:100BA00084F84C00E3E70120FAE701EA0205ED07CB
:100BB0001FD02046FFF7E6FEA06C401EA064D6D1F1
:100BC000A06B58B92068416821F00101416094F898
:100BD0004C00032809D0022084F84C0094F840000F
:100BE000012804D00120A064C1E70120F4E7606C73
:100BF000F9E7CD061CD5D5061AD5856A002115F072
:100C0000FF0F01D0012204E000222D0A01E06D084F
:100C1000491CEE0701D10729F9D32AB18B40C362E1
:100C20002046FFF7FAFDA2E701F10805AB40F6E721
:100C30001F4D204EA84221D111F47F0F1ED0570620
:100C40001CD580680025C0F307479846F80710D0E8
:100C500056F8250068B100680068400609D505F11E
:100C6000100108FA01F02168C86056F82500FFF766
:100C70002AFD7F086D1C082DE8D378E7A84291D1A2
:100C8000090E8FD091068DD582680021120ED407EF
:100C900005D15208491CD40701D10729F9D301F124
:100CA00018029340C36056F82100FFF7B5FD5EE7D8
:100CB000006101408C030020F0B4016C0C680168F5
:100CC0000D6890F8442002F01C06042202FA06F394
:100CD000234211D06B070FD50B689B0603D40B681A
:100CE00023F004030B6090F8441001F01C018A40CB
:100CF000016C4A60016B1DE0022303FA06F72742EC
:100D00004FF0000C4FF0010218D0AF0716D50C6859
:100D1000A40605D40C6824F00A040C6080F8252091
:100D200090F8441001F01C018B40016C4B6080F87E
:100D300024C0C16A00291AD0F0BC08470823B34078
:100D4000234214D02B0712D50B6823F00E030B603F
:100D500090F84410036C01F01C0102FA01F1596093
:100D6000C26380F8252080F824C0416BE2E7F0BC24
:100D70007047000070B568B12B4C036814212B4AF2
:100D8000A34209D22A4C1C44B4FBF1F18900C0E90A
:100D900010210BE0012070BD234C64421C44B4FBC5
:100DA000F1F189004164204908390164022180F889
:100DB00025101C6847F6F0718C43D0E902152943D1
:100DC000D0E904563543294385692943C569294338
:100DD000056A2943214319608168B1F5804F19D014
:100DE000036C0F21934202D152F8A83F02E00E4A51
:100DF000A032136890F8444004F01C04A1408B43D7
:100E0000136090F84430416803F01C039940136864
:100E1000194311600021C163012280F8252080F868
:100E20002410084670BD0000080402400000024083
:100E3000F8FFFDBF70B5044690F824000025012896
:100E40000CD0012084F8240094F825600020012EA5
:100E500006D084F824000225284670BD022070BD0B
:100E6000022684F82560E0632068066826F0010603
:100E700006602046FFF7A0FA206B00282068016872
:100E800002D041F00E0106E021F00401016020686B
:100E9000016841F00A0101602068016841F0010128
:100EA0000160D9E770B5044600F004F90546601CFE
:100EB00000D0641C00F0FEF8401BA042FAD370BDC5
:100EC00070470000044910B50A68024202D0086069
:100ED000FFF7F6FF10BD0000140401402DE9F84FA4
:100EE000DFF898B100234FF0010C4FF0030A4FF0E8
:100EF0000F090BF1040EB9E00CFA03F4224070D094
:100F00004D68022D01D0122D0ED1DD0800EB8508B1
:100F1000D8F820505E07F70E09FA07F6B5430E69B8
:100F2000BE402E43C8F8206007685E0091F8048038
:100F30000AFA06F508F00308AF4308FA06F848EA8B
:100F40000708C0F800804F68012F05D0022F03D09A
:100F5000112F01D0122F13D1D0F80880CF6828EAC2
:100F60000508B74047EA08078760D0F804800F7982
:100F700028EA0408C7F300179F4047EA08074760BC
:100F8000D1F804806FEA0807BF0706D1C76AA743F4
:100F9000C8F3C0049C403C43C462C468AC438D6841
:100FA000B5402543C5604C68E4005ED5344C256EE1
:100FB00045F001052566246E23F0030504F00104C5
:100FC0000094304C2E19B4689D072F0F09FA07F5CD
:100FD000AC43B0F1904F05D02B4DA84204D1012570
:100FE0001CE042E0002519E0284DA84201D102256D
:100FF00014E0274DA84201D103250FE0254DA8425A
:1010000001D104250AE0244DA84201D1052505E0BF
:10101000224DA84201D1062500E00725BD40254309
:10102000B560DBF800405D464E689443F60300D59A
:1010300014432C60DEF8004075464E689443B603B6
:1010400000D514432C600D4D08352C684E68944330
:10105000F60200D514432C60084D0C352C684E6800
:101060009443B60200D514432C605B1C0A6832FA24
:1010700003F57FF441AFBDE8F88F000000040140A4
:101080000010024000000140000400480008004831
:10109000000C0048001000480014004800180048E8
:1010A0000069084000D0012070470AB18161704793
:1010B00081627047014800687047000030000020DE
:1010C00002480168491C01607047000030000020A0
:1010D00010B5032000F088F8002000F005F800F0BB
:1010E00017F8002010BD000010B5044607484FF463
:1010F0007A710068B0FBF1F000F0EBFD00222146B0
:10110000501E00F051F8002010BD000034000020F7
:101110001E4808B5016E41F001010166016E01F043
:1011200001010091816D41F080518165806D00F079
:1011300080500090032000F057F8002211466FF015
:101140000B0000F031F8002211466FF00A0000F0A9
:101150002BF8002211466FF0090000F025F800225C
:101160001146501F00F020F800221146101F00F019
:101170001BF800221146901E00F016F80022BDE870
:1011800008401146501E00F00FB800000010024049
:1011900000F01F02012191404009800000F1E02091
:1011A000C0F8001170470000F0B40E4B1B680C46ED
:1011B000C3F30223C3F10705042D00D90425191D2B
:1011C000072901D2002300E0DB1E012606FA05F103
:1011D000491E214099409E40761E16403143F0BC86
:1011E00001F0FAB80CED00E0064900F007020868CB
:1011F0004FF6FF03184040EA0220034A10430860FC
:10120000704700000CED00E00000FA051549B0F54C
:10121000007F0868C0F3412009D0022805D0086883
:1012200020F4C06040F4806008600020704701280E
:10123000FBD0086820F4C06040F4007008600A48E1
:101240000A4A0068B0FBF2F03222504300E0401E30
:1012500010B14A695205FAD448694005E5D5032022
:1012600070470000007000403400002040420F0032
:101270000248006800F4C060704700000070004041
:101280002DE9F84F044600270088E54D3E4601054C
:1012900004F1200B1DD5606E78B1B0F5800F11D030
:1012A000B0F5000F04D0B0F5400F22D001270FE0B9
:1012B000E86840F48030E8601BE00021201D01F068
:1012C0009DF803E00021584601F02EF9070010D0E8
:1012D0003E462088C00426D5A06EC0B1B0F1807F04
:1012E0001AD0B0F1007F0DD0B0F1407F19D00127A6
:1012F00018E0D5F88800616E20F440000843C5F876
:101300008800E6E7E86840F48030E86009E0002102
:10131000201D01F073F803E00021584601F004F9A4
:101320000746F7B13E46206880033AD5A86D4FF0D6
:101330000008C00009D4A86D40F08050A865A86DD1
:101340004FF0010800F080500090DFF8D8A2DAF8E2
:10135000001041F48071CAF80010FFF7ABFE81461F
:1013600010E0D5F88800A16E20F040700843C5F861
:101370008800D8E7FFF79EFEA0EB0900022801D9FC
:10138000032705E0DAF80000C005F3D5002F7CD074
:101390004FEA0706B8F1000F03D0A86D20F0805087
:1013A000A8652078C00707D0D5F88800A16B20F089
:1013B00003000843C5F888002078800707D5D5F8D2
:1013C0008800E16B20F00C000843C5F88800207805
:1013D000400707D5D5F88800216C20F0300008437D
:1013E000C5F888002078000707D5D5F88800616C1B
:1013F00020F0C0000843C5F888002078C00607D553
:10140000D5F88800A16C20F440700843C5F8880026
:101410002078800607D5D5F88800E16C20F440607C
:101420000843C5F888002088800507D5D5F88800CE
:10143000E16D20F440200843C5F88800208840056D
:1014400007D5D5F88800216E20F440100843C5F870
:1014500088002078400607D5D5F88800216D20F453
:1014600040500843C5F888002078000607D5D5F815
:101470008800616D20F440400843C5F8880020884A
:10148000C00509D5D5F8880000E01CE0A16D20F466
:1014900040300843C5F8880020884FF0006780047A
:1014A0004FF080684FD5D5F88800E16E20F040609D
:1014B0000843C5F88800E06EB8423CD1E86840F4C3
:1014C0008010E8603FE0D5F8900010F4407015D02F
:1014D000D4F88410814211D0D5F89000D5F890103E
:1014E00020F4407041F48031C5F89010D5F8901088
:1014F00021F48031C5F89010C5F89000C00710D0D5
:10150000FFF7D8FD074641F2883906E0FFF7D2FD24
:10151000C11B494501D903263CE7D5F89000800757
:10152000F4D5D5F89000D4F8841020F44070084326
:10153000C5F890002EE7404505D10121201D00F09F
:101540005DFF00B106462068000317D5D5F8880076
:10155000216F20F040600843C5F88800206FB84232
:1015600004D1E86840F48010E86007E0404505D108
:101570000121201D00F042FF00B106462068400313
:1015800017D5D5F88800616F20F040600843C5F892
:101590008800606FB84204D1E86840F48010E860C9
:1015A00007E0404505D10121201D00F027FF00B1D3
:1015B0000646208840041AD5D5F88800A16F20F08F
:1015C00040500843C5F88800A06FB0F1805F03D099
:1015D000B0F1005F05D00AE00221201D00F00EFFEF
:1015E00003E00221584600F09FFF00B10646208824
:1015F000000407D5D5F88800E16F20F0804008434B
:10160000C5F888002068C00307D555F8880FD4F8BE
:10161000801020F00040084328603046BDE8F88F75
:1016200000100240007000402DE9F0470F46050011
:1016300058D03E4E306800F00700B84209D23068FA
:1016400020F0070038433060306800F00700B842EF
:1016500048D12878364CC0072CD06868032811D0B0
:10166000022812D0216898B1490500293ADAA16808
:1016700021F003010143A160FFF71CFD804641F208
:10168000883910E021688901EFE721688903ECE7D8
:101690008907EAE7FFF70EFDA0EB0801494502D9EB
:1016A0000320BDE8F087A068696800F00C00B0EB8B
:1016B000810FEFD12878800705D5A068A96820F0B0
:1016C000F0000843A060306800F00700B8420BD972
:1016D000306820F0070038433060306800F00700C1
:1016E000B84201D00120DCE72878400705D5A06882
:1016F000E96820F4E0600843A0602878000706D578
:10170000A068296920F4605040EAC100A06000F0A0
:101710003BF8A168074AC1F30311515CC840064970
:1017200008600020FFF7E0FC0020BAE7002002403C
:1017300000100240242E00083400002001480068F8
:10174000704700003400002004480549006889689B
:10175000044AC1F30221515CC840704734000020A4
:1017600000100240642E000804480549006889689A
:10177000044AC1F3C221515CC840704734000020C4
:1017800000100240642E000830B52D490023184691
:101790008A682C4C12F00C0F4FEA640514D08A684A
:1017A000C2F38102032A04D1CA6802F00302012AAB
:1017B0000AD08A68C2F38102012A19D08A68C2F36A
:1017C0008102022A16D016E00A68120704D4D1F862
:1017D0009420C2F3032202E00A68C2F303121A4BF8
:1017E00053F822308A6812F00C0F04D1184602E038
:1017F000204600E028468A68C2F38102032A1DD1F0
:10180000C868CA6800F00300C2F30212521C022822
:1018100004D0032805D0B3FBF2F004E0B4FBF2F0EF
:1018200001E0B5FBF2F0CA68C968C2F30622504372
:10183000C1F34161491C4900B0FBF1F030BD00002B
:10184000001002400024F400342E00082DE9F84373
:1018500004007DD02078FF4DC0065DD5A86810F04B
:101860000C0F0AD0A0690028286873D040F001004E
:101870002860FFF71FFC064655E02868800702D560
:10188000A0690028E5D0216A2868000703D52868E8
:1018900000F0F00004E0D5F89400F02202EA101005
:1018A000814216D9084600F0C3FE002850D12868AE
:1018B00040F0080028602868216A20F0F000084302
:1018C00028606868E16920F47F4040EA0120686090
:1018D00015E0286840F0080028602868216A20F098
:1018E000F000084328606868E16920F47F4040EA1E
:1018F00001206860206A00F09BFE0028D6D1FFF727
:1019000043FFA968D44AC1F30311515CC840D349CD
:1019100008600020FFF7E8FB2CE000BFFFF7CAFBE0
:10192000801B02287ED828688007F7D5286840F0F9
:10193000080028602868216A20F0F0000843286029
:101940006868E16920F47F4040EA0120686011E0A6
:10195000B2E0FFE720F001002860FFF7ABFB06468E
:1019600005E000BFFFF7A6FB801B0228DAD8286835
:101970008007F7D42078C00748D0A868C0F381005A
:1019800002281DD0A868C0F38100032803D1E868AD
:10199000C043800714D06068B0F5803F17D0B0F521
:1019A000A02F286817D020F480302860286820F401
:1019B000802028606068E0B1FFF77CFB064614E0F9
:1019C0002868800322D56068002875D01EE028684A
:1019D00040F48030EDE740F480202860F7E700BF56
:1019E000FFF768FB801B64289CD828688003F7D524
:1019F0000CE0FFF75FFB064605E000BFFFF75AFB70
:101A0000801B64288ED828688003F7D4207880074C
:101A100042D5A868C0F38100012816D0A868C0F399
:101A2000810000E0A9E0032804D1E86800F0030089
:101A300002280AD0E068002828681DD040F4807091
:101A40002860FFF737FB06460BE0286840050BD5FA
:101A5000E0680028B9D007E0FFF72CFB801B0228C4
:101A600084D828684005F7D56868217C20F0F850B4
:101A700040EA016068600FE020F480702860FFF7A2
:101A800019FB064605E000BFFFF714FB801B022888
:101A900073D828684005F7D42078000729D56069F5
:101AA0000028D5F8940013D040F00100C5F8940048
:101AB000FFF700FB064606E0FBE000BFFFF7FAFA7F
:101AC000801B022859D8D5F894008007F6D510E07D
:101AD00020F00100C5F89400FFF7ECFA064604E098
:101AE000FFF7E8FA801B022847D8D5F89400800752
:101AF000F6D42078400763D5A86D0026C00008D42E
:101B0000A86D40F08050A865A86D012600F08050B7
:101B1000009053480168C90511D40168804641F41A
:101B200080710160FFF7C6FA074604E0FFF7C2FACA
:101B3000C01B022821D8D8F80000C005F6D5A0683F
:101B4000012815D00528D5F8900017D020F0010005
:101B5000C5F89000D5F8900020F00400C5F890007A
:101B6000A06841F28838C8B1FFF7A4FA074610E030
:101B7000D5F8900040F00100F0E777E040F0040075
:101B8000C5F89000F4E700BFFFF794FAC11B414588
:101B90006CD8D5F890008007F6D50CE0FFF78AFAEC
:101BA000074604E0FFF786FAC11B414579D8D5F80E
:101BB00090008007F6D41EB1A86D20F08050A86573
:101BC000A06AE0B3A968C1F38101032972D0022899
:101BD000286820F08070286011D02868000106D4A1
:101BE0002868800003D4E86820F00300E860E86813
:101BF0001C490840E860FFF75DFA044654E0FFF72F
:101C000059FA064605E000BFFFF754FA801B022888
:101C100047D828688001F7D4206BE16A00011038AA
:101C20000843616BA26B0902120941EA4241084371
:101C3000A18F0D4A490802EB4151084300E036E00C
:101C400094F840104908120102EB41610843E86032
:101C500028680CE000100240242E00083400002008
:101C600000700040FFFFEEFE0000E0FF19E040F0D2
:101C700080702860E86840F08070E860FFF71AFA2A
:101C8000044604E0FFF716FA001B022809D828686A
:101C90008001F7D50BE000BFFFF70CFA001B02280C
:101CA00002D90320BDE8F88328688001F4D400201D
:101CB000F8E7FFE70120F5E74FF0E0210428086985
:101CC00003D020F004000861704740F00400FAE7F8
:101CD000704710B5401EB0F1807F01D3012010BDC8
:101CE0004FF0E02460610F21601700F075FB0020C9
:101CF000A06107202061002010BD10B5FFF7E8FFAC
:101D000010BD704710B5040003D094F8710010B1F5
:101D100007E0012010BD002084F87000204600F08C
:101D200027F8242084F871002068016821F001015F
:101D30000160204600F020FE0128EBD0606A10B15F
:101D4000204600F02BFD2068416821F4904141605D
:101D50002068816821F02A0181602068016841F0D3
:101D6000010101602046BDE8104000F07BBD00008D
:101D70002DE9F04106460068264986B0884246D1E2
:101D80002548016E41F480410166006E4FF0020863
:101D900000F480400590C020CDE900080024032015
:101DA000CDE9024007200490474669461B48FFF7EB
:101DB00095F81C4D1A482860C5E901748027C5E9CB
:101DC00003476C61AC61EC6128462C62FEF7D2FFE0
:101DD00020B14FF4C67114A000F051FFF566AE6259
:101DE0000F48184D1438E5E80208102091C5154831
:101DF00045F81449AC61EC612C62FEF7BBFF20B1E1
:101E000040F29D1108A000F03AFFB566AE6206B040
:101E1000BDE8F08100380140001002400004004895
:101E200080040240FC0200202E2E2F5372632F7379
:101E3000746D33326C3478785F68616C5F6D737089
:101E40002E6300004403002070B5044690F8710032
:101E5000202834D181B37AB394F8700001282ED0B1
:101E6000012084F87000E164A4F85020A4F8522006
:101E700000256567212084F87100A16E1148134682
:101E8000C862A16E10480863A16E10484863A06E36
:101E900085632668E16C06F12802A06EFEF7CAFF92
:101EA00021684020086284F870502068816841F001
:101EB00080018160002070BDFFE70120FBE7022068
:101EC000F9E700000B2900083B290008C128000899
:101ED00070477047FEE7000010B511498AB00F48FF
:101EE00008600846FEF735FB00B1FEE700240094C9
:101EF0000194029403942246694609480494FEF72B
:101F00009BFA00B1FEE71022694605480394FEF7EC
:101F100093FA002800D0FEE70AB010BD007400401C
:101F2000380000202DE9F047354834490024C0E945
:101F30000014012505724572CE056427C661C0E90B
:101F40000875FEF79DFC00B1FEE72D482B49543083
:101F50008031C0E9001405724572C661C0E9087598
:101F6000FEF78EFC00B1FEE725482449A830E03991
:101F700002C0322600F8045B8915E0E802464FF003
:101F8000040810C00C27E0E80241DFF87890E0E890
:101F9000054840F80C7980E830021948A830FEF76F
:101FA00093FB00B1FEE716481449E030C03902C087
:101FB00000F8045BE0E8024610C010C040F8184B7F
:101FC00040E9054840F80C7980E830020C48E030E0
:101FD000FEF77AFB00B1FEE701220B490848FEF745
:101FE0001DFC00B1FEE70648012208495430FEF707
:101FF00015FC002800D0FEE7BDE8F0870061014035
:102000004C0000200CFEFFFF020001000400020053
:10201000214808B5816C41F002018164816C01F0B6
:1020200002010091816C41F001018164806C002209
:1020300000F00100009011460D20FFF7B5F80D20CB
:10204000FFF7A6F8002211460E20FFF7ADF80E208C
:10205000FFF79EF8002211460F20FFF7A5F80F208A
:10206000FFF796F8002211463C20FFF79DF83C2030
:10207000FFF78EF8002211464420FFF795F8442020
:10208000FFF786F8002211464520FFF78DF8BDE8DE
:1020900008404520FFF77CB8001002402DE9F04FC2
:1020A000B74887B0C16C41F01001C164C16C01F048
:1020B00010010591C16C41F00401C164C16C01F0D3
:1020C00004010591C16C41F00101C164C16C01F0D2
:1020D00001010591C16C41F00201C164C16C01F0C4
:1020E00002010591C16C41F00801C164C06C00227D
:1020F00000F00800059040F21511A248FEF7D5FF48
:10210000002248F204114FF09040FEF7CEFF00226B
:102110004FF234019C48FEF7C8FF002243F28101D0
:102120009A48FEF7C2FF00224FF410719848FEF75C
:10213000BCFF40F21510009001200024CDE90104FD
:10214000694690480394FEF7C9FE924D6A20CDE996
:102150000005694602948B48FEF7C0FE4FF400501C
:1021600000908D48CDE9010469468948FEF7B6FE26
:102170003F200B26CDE90006694602948448FEF70D
:10218000ADFE032000900220CDE9010403200827C2
:10219000CDE9030769464FF09040FEF79FFE48F2F5
:1021A000041000900120CDE9010469464FF09040F1
:1021B0000394FEF793FE02200097CDE9010401206D
:1021C000CDE9034069464FF09040FEF787FEC020FE
:1021D00000900220CDE9010403204FF0050BCDE96A
:1021E000030B69464FF09040FEF778FE0120CDE9E1
:1021F0000005694602946448FEF770FE0220CDE9AE
:102200000006694602946048FEF768FE4FF234000B
:1022100000900120CDE9010469465B480394FEF774
:102220005DFE4FF47C4000900220CDE901040320C4
:102230000A26CDE9030669465248FEF74FFE4FF4E1
:1022400040604FF01208CDE9000801200290032001
:102250004FF00409CDE9030969464B48FEF73EFEFD
:102260004FF4407A0220CDF800A0CDE9010403200C
:102270000727CDE9030769464448FEF72FFE4CF6D1
:102280000440CDE90005694602944048FEF726FE69
:1022900043F2810000900120CDE9010469463B48EA
:1022A0000394FEF71BFE4FF4107000900120CDE95F
:1022B0000104694636480394FEF710FE4FF4C070DF
:1022C000CDE90005694602943148FEF707FE4FF458
:1022D0000070CDE9000469464FF090400294FEF78B
:1022E000FDFDBD0202200095CDE901040320CDE9EA
:1022F000030669464FF09040FEF7F0FD022000957E
:10230000CDE901040320039006200490694620488B
:10231000FEF7E4FD02200090CDE901040320CDE9A1
:10232000030B69461948FEF7D9FD7820009002207A
:10233000CDE901040320CDE9030769461348FEF700
:10234000CDFD0120CDF800A0CDE901800320CDE92D
:10235000030969460C48FEF7C1FD0022114617200B
:10236000FEF722FF1720FEF713FF00221146282058
:10237000FEF71AFF2820FEF70BFF07B0BDE8F08F2D
:10238000001002400010004800040048000C004803
:102390000008004800001110000021100C4810B582
:1023A0000A4901604FF4E1314160002181600C2253
:1023B000C160C0E904128161C16101624162FFF73D
:1023C000A1FC002800D0FEE710BD0000003801404D
:1023D00064010020FEE770470907090E002806DAAD
:1023E00000F00F0000F1E02080F8141D704700F1AC
:1023F000E02080F800147047704700002DE9F0419C
:10240000444C05468846E0680026810728680DD0C0
:10241000E16801F00301814216D1A8B1E068696862
:10242000C0F30210401C88420ED120E0012804D0E5
:10243000022805D0032807D108E02168890701E0B8
:1024400021684905002907DB01265FE0216889032F
:1024500002D421684903F5E7E1686A686FF00F0369
:1024600021F0730103EB021211430143E160206884
:1024700020F080602060FEF71DFE074605E000BFEB
:10248000FEF718FEC01B022837D820680001F7D4D9
:10249000B8F1000F18D0B8F1010F1ED0287D4FF011
:1024A0007E41400801EB4060A96840EA01202169B3
:1024B000194A114008432061206840F08060206084
:1024C000FEF7F8FD07461AE0A868E9680002090966
:1024D00040EA41402169114AEBE7288A1049400847
:1024E00001EB4050A96840EA012021690D4AE0E76C
:1024F000FEF7E0FDC01B022801D9032606E0206894
:102500000001F5D52069A969084320613046BDE87E
:10251000F081000000100240FF80FFF9FF80FDFF06
:102520000000E0FFFF809FFF2DE9F0413D4C064693
:102530008846E0680025810730680DD0E16801F029
:102540000301814216D1A8B1E0687168C0F302109E
:10255000401C88420ED120E0012804D0022805D07A
:10256000032807D108E02168890701E021684905AF
:10257000002907DB012551E02168890302D4216885
:102580004903F5E7E16872686FF00F0321F073010A
:1025900003EB021211430143E160206820F08050F8
:1025A0002060FEF787FD074605E000BFFEF782FDCD
:1025B000C01B022829D820688000F7D4B8F1000F8A
:1025C00015D0307C4FF07E41400801EB4060B1688F
:1025D00040EA01206169144A1140084360612068A3
:1025E00040F080502060FEF765FD07460FE0B068C0
:1025F000F1680002090940EA414061690B4AEBE7D2
:10260000FEF758FDC01B022801D9032506E020680B
:102610008000F5D560697169084360612846BDE8AE
:10262000F081000000100240FF80FFF9FF80FDFFF5
:10263000F8B51C4D06460024A86DC00002D5FEF773
:1026400017FE0DE0A86D40F08050A865A86D00F061
:1026500080500090FEF70CFEA96D21F08051A96515
:10266000B0F5007F04D0802E07D94FF003040AE0B4
:10267000802E08D9A02E01D804E001D1022402E066
:10268000702E00D101240848016821F00701214380
:102690000160006800F00700A04201D00120F8BDF1
:1026A0000020F8BD001002400020024070470000EA
:1026B000044910B501200860FEF702FDBDE8104096
:1026C000FFF71BBB0000002010B5B8B0102022900F
:1026D0000120002460212890CDE929410221CDE983
:1026E0002C102E9028202F900720CDE9300122A811
:1026F0003291FFF7ABF800B1FEE70F2033900320D3
:10270000CDE934043694042133A83794FEF78CFFC6
:1027100000B1FEE74FF0011000900E94209468463F
:10272000FEF7AEFD00B1FEE74FF40070FEF76EFD60
:1027300000B1FEE7FFF702F84FF47A71B0FBF1F059
:10274000FFF7C7FA0420FFF7B7FA00221146501E20
:10275000FEF72AFD38B010BD0D48016841F4700144
:1027600001600C48016841F00101016000218160B5
:102770000268094B1A4002608214C260026822F4A7
:102780008022026081610249C0038039086070477D
:1027900088ED00E000100240FFFFF6EA90F82410F8
:1027A000C90706D001684A68836A22F400321A43D6
:1027B0004A6090F82410890706D501684A68C36A00
:1027C00022F480321A434A6090F82410490706D553
:1027D00001684A68036B22F480221A434A6090F829
:1027E0002410090706D501684A68436B22F40042A9
:1027F0001A434A6090F82410C90606D501688A6811
:10280000836B22F480521A438A6090F82410890660
:1028100006D501688A68C36B22F400521A438A60A5
:1028200090F82410490611D501684A68036C22F417
:1028300080121A434A60016CB1F5801F06D101680D
:102840004A68436C22F4C0021A434A6090F824108C
:10285000090606D501684A68806C22F4002202430A
:102860004A607047F8B5002604464667FEF722FC2A
:102870000546206800686FF07E47000708D52B46A4
:1028800000224FF400112046009700F0C5F960B90E
:102890002068006840070AD52B4600224FF48001CB
:1028A0002046009700F0B8F908B10320F8BD2020B9
:1028B00084F8710084F8720084F870600020F8BD1C
:1028C00070B5846A94F871000025212808D1206829
:1028D0008068000604D5A4F85250204600F042F863
:1028E00094F87200222808D120688068400604D538
:1028F000A4F85A50204600F025F8606F40F0100010
:1029000060672046FFF7FDF970BD10B50146806A8B
:102910000968096889060DD40021A0F852100168E1
:102920008A6822F080028A600068016841F04001F4
:10293000016010BDFFF7CCFA10BD10B5806AFFF73B
:10294000C8FA10BD01680A6822F490720A60016832
:102950008A6822F001028A60202180F8721000212A
:102960000166704701680A6822F0C0020A602021EF
:1029700080F87110704700002DE9F04104460168AD
:1029800080682369E669184363691025002733438B
:102990001843954A0B68954E334003430B602068FB
:1029A0004168E36821F44051194341602168A069FE
:1029B000914201D0236A18438B6823F430630343A8
:1029C0008B608B4B21688B4899420DD1D0F88800E1
:1029D00010F0030006D001285AD0022856D0032850
:1029E00059D157E0012556E0834B99420BD1D0F8DD
:1029F000880010F00C0047D0042849D0082845D0A2
:102A00000C2848D146E07D4B99420BD1D0F8880084
:102A100010F0300038D010283AD0202836D0302896
:102A200039D137E0764B99420BD1D0F8880010F0BD
:102A3000C00029D040282BD0802827D0C0282AD1F8
:102A400028E0704B99420ED1D0F8880010F4407005
:102A50001AD0B0F5807F1BD0B0F5007F16D0B0F54E
:102A6000407F18D116E0914215D1D0F8880010F4BB
:102A7000406009D0B0F5806F0AD0B0F5006F05D086
:102A8000B0F5406F07D105E0002504E0022502E023
:102A9000042500E008255C4B00264FF400409142DD
:102AA0003DD135B1022D07D0042D07D0082D10D10E
:102AB00007E0FEF749FE03E0184602E0FEF764FE79
:102AC000A8B3626802EB4201814202D8B0EB023F38
:102AD00001D9012775E0DFF834815DB1022D0CD0FA
:102AE000042D13D0082DF4D150082905401846F1C3
:102AF000000105E0FEF728FE0AE050084449F5E72A
:102B00000023FDF75DFBA0F5407156E0FEF73CFEAB
:102B10006268010E0302500818187141F0E7E1697C
:102B20004FF6EF7881422FD1092DD2D200E048E054
:102B3000DFE805F006092005230505052600C8E79E
:102B4000FEF702FE01E0FEF70FFE4100D4F804009C
:102B500001EB5001B1FBF0F080B2A0F11001414552
:102B6000B7D84FF6F0710140C0F34200014320682E
:102B7000C16026E027496068EAE7FEF705FEE4E762
:102B80004FF480316068E3E7092DA2D2DFE805F059
:102B900006091E052205050525009AE7FEF7D4FD66
:102BA00001E0FEF7E1FD0146606801EB500100BF66
:102BB000B1FBF0F080B2A0F11001414589D8216845
:102BC000C860266638466666BDE8F081606803EB3B
:102BD0005001EDE7FEF7D8FDE5E7616800EB510035
:102BE000B0FBF1F0E6E7000000800040F369FFEF82
:102BF00000380140001002400044004000480040FE
:102C0000004C0040005000400024F400FFFC0F0086
:102C1000000024F40048E8012DE9F04198461746E9
:102C20000E460446069D1DE0681C1BD02DB1FEF724
:102C300041FAA0EB0800A84214D92068016821F4E9
:102C4000D07101602068816821F00101816020203D
:102C500084F8710084F87200002084F8700003206A
:102C6000BDE8F0812068C06936EA000004D0002089
:102C7000B842D9D00020F3E70120F9E7FEE7FEE7EC
:102C800002E008C8121F08C1002AFAD17047704735
:102C9000002001E001C1121F002AFBD17047000093
:102CA000FEF716FAFFF710FDFFF7F8F9FFF7B0F996
:102CB000FFF712F9FFF736F9FFF770FB544DDFF815
:102CC00054914FF400564FF4804800215248FDF7CC
:102CD000D0FC10215048FDF7CCFC4F481430FDF7D4
:102CE0001CFF4D486830FDF718FF31462846FEF7B7
:102CF000D7F9F0B1002442F2107702E0641CBC4224
:102D000005D031462846FEF7CBF90028F6D100233E
:102D1000082219464048FDF79FFC00230822102195
:102D20003D48FDF799FC002241464846FEF7BDF9B3
:102D3000CBE7012241464846FEF7B7F93648012164
:102D40001430FDF7AFFE0028BFD1334833491430AB
:102D5000FDF789FD314C211DA0602F486830FDF73B
:102D600082FD4FF47A7290FBF2F304F110013033DC
:102D7000E0608B7090FBF2F302FB1307642397FB78
:102D8000F3F73037CF7090FBF3F703FB170C0A27EC
:102D90009CFBF7FC0CF1300C81F804C090FBF7FCB5
:102DA00007FB1C0030304871A06890FBF2FC0CF16E
:102DB000300C81F808C090FBF2FC02FB1C0292FB75
:102DC000F3F230324A7290FBF3F203FB120292FBF1
:102DD000F7F230328A7290FBF7F207FB12003030C4
:102DE000C8720D220E48FFF72FF8A068002200EBF2
:102DF000D070431011460848FDF72EFCE068002211
:102E000000EBD070431010210348FDF725FC5CE770
:102E1000000800480004004838000020040000209A
:102E20006401002000000000000000000102030413
:102E300006070809A0860100400D0300801A06005D
:102E400000350C0040420F0080841E0000093D0048
:102E500000127A000024F40000366E010048E801F8
:102E6000006CDC0200000000010203048C2E00084C
:102E70000000002038000000802C0008C42E00084C
:102E80003800002078070000902C000800000000A7
:102E9000010000000200000000000000000000002F
:102EA000523A202020204C3A202020200A00000006
:102EB0000000000000000000000000000000000012
:042EC00000093D00C8
:040000050800018965
:00000001FF
