:020000040800F2
:10000000C83900209D010008BB1D0008BD1900086B
:10001000B91D0008EB020008DD2600080000000002
:100020000000000000000000000000009120000817
:100030000503000800000000DD1D000895200008F1
:10004000B7010008B7010008B7010008B7010008B0
:10005000B7010008B7010008B7010008B7010008A0
:10006000B7010008B7010008B7010008B701000890
:10007000B7010008B7010008ED020008F902000806
:10008000B7010008B7010008B7010008B701000870
:10009000B7010008B7010008B701000835030008E0
:1000A0007D210008B7010008B7010008B70100086A
:1000B000B7010008B7010008B7010008B701000840
:1000C000B7010008B7010008B7010008B701000830
:1000D000B7010008B7010008B7010008B701000820
:1000E00007030008B7010008B7010008B7010008BE
:1000F000B7010008B7010008B7010008B701000800
:10010000B7010008B7010008B7010008B7010008EF
:10011000B7010008B7010008B7010008B7010008DF
:10012000B7010008B7010008B7010008B7010008CF
:10013000B7010008B7010008B7010008B7010008BF
:10014000B7010008B7010008B7010008B7010008AF
:10015000B7010008B7010008B7010008B70100089F
:10016000B7010008B7010008B7010008B70100088F
:10017000B7010008B70100080000000000000000FF
:10018000B7010008B7010008DFF80CD000F06CF8E8
:100190000048004701270008C8390020064880476A
:1001A00006480047FEE7FEE7FEE7FEE7FEE7FEE75C
:1001B000FEE7FEE7FEE7FEE73921000889010008B7
:1001C0002DE9F05F0546002092469B46884606468C
:1001D000814640241BE0284641464746224600F01F
:1001E00032F853465A46C01A914110D31146184668
:1001F000224600F019F82D1A67EB01084F462246F7
:100200000120002100F010F817EB00094E41201EDC
:10021000A4F10104DFDC484631462A46434600F09B
:1002200000B830BCBDE8C09F202A04DB203A00FAA9
:1002300002F1002070479140C2F1200320FA03F33D
:10024000194390407047202A04DB203A21FA02F03B
:100250000021704721FA02F3D040C2F12002914000
:100260000843194670470000064C074D06E0E06859
:1002700040F0010394E8070098471034AC42F6D3ED
:10028000FFF786FF7C2800089C28000870B58D18B1
:1002900010F8014B14F0030201D110F8012B2311C7
:1002A00006D110F8013B03E010F8016B01F8016B77
:1002B000521EF9D1ABB110F8012B04F00C048A1ACC
:1002C0000C2C03D0A2EB84129B1C08E010F8014B0D
:1002D000A2EB0422F8E712F8014B01F8014B5B1E78
:1002E000F9D5A942D4D3002070BDFEE7014800F043
:1002F0002CB9000080350020014800F026B900002C
:1003000038350020704710B54FF4806000F0EAF9EE
:100310004FF4006000F0E6F94FF4005000F0E2F90D
:100320004FF4804000F0DEF9BDE810404FF400408B
:1003300000F0D8B910B5202000F0D4F9402000F02A
:10034000D1F9802000F0CEF9BDE810404FF4807064
:1003500000F0C8B92DE9F0470446407900270E4661
:1003600001280BD04FF0010984F80590022020717C
:10037000306802F01005042803D043E00220BDE8F5
:10038000F0874FF0030802BB00F0A8FA074604E02C
:1003900000F0A4FAC01B01280FD82068406B0004AD
:1003A000F6D4012000F08EF92168B069086416E0E7
:1003B00000F094FAC01B012807D9206940F008001A
:1003C000206184F804800320D9E72068406B00286E
:1003D000EEDB012000F076F92168B06948642068FE
:1003E000816C40F2FF32AA409143F269AA40114366
:1003F00081642068C16CFF22AA409143326AAA40FE
:100400001143C1643069012808D12268916B1F2013
:10041000A84081437069A840084390632268D16B6B
:100420000720A8408143B36830681843F368184335
:10043000A8400843D063206801684FF48042AA4076
:10044000914301602268116840F6FC70A840814326
:100450007068A8400843106020680168C022AA4064
:100460009143016084F804900020607187E770B5C3
:10047000040003D02079002510B105E0012070BDF3
:100480006571204600F008F80220207125610120E6
:100490002071002070BD000000B500680C4987B0D5
:1004A000884213D10B48816D41F000518165806D08
:1004B000694600F000500590302000900320019024
:1004C000002002904FF0904000F018F907B000BDF6
:1004D000007400400010024018B5046800940068E1
:1004E000104421B1143000900360002018BD083082
:1004F000F9E770B54279012A14D001224271022332
:10050000037103681D6801F0100602FA06F4254322
:100510001D60002901680B6806D0C3F38343012BDB
:100520000AD00DE0022070BDC3F38303012B07D175
:100530004B6843F0010302E04B6843F002034B6059
:10054000027100214171084670BDF0B4016C0C6865
:1005500001680D6890F8442002F01C06042202FA9B
:1005600006F3234211D06B070FD50B689B0603D40B
:100570000B6823F004030B6090F8441001F01C0199
:100580008A40016C4A60016B1DE0022303FA06F702
:1005900027424FF0000C4FF0010218D0AF0716D5DC
:1005A0000C68A40605D40C6824F00A040C6080F8DA
:1005B000252090F8441001F01C018B40016C4B6029
:1005C00080F824C0C16A00291AD0F0BC084708236B
:1005D000B340234214D02B0712D50B6823F00E032F
:1005E0000B6090F84410036C01F01C0102FA01F159
:1005F0005960C26380F8252080F824C0416BE2E78F
:10060000F0BC704770B568B12B4C036814212B4ABD
:10061000A34209D22A4C1C44B4FBF1F18900C0E981
:1006200010210BE0012070BD234C64421C44B4FB3C
:10063000F1F189004164204908390164022180F800
:1006400025101C6847F6F0718C43D0E90215294348
:10065000D0E904563543294385692943C5692943AF
:10066000056A2943214319608168B1F5804F19D08B
:10067000036C0F21934202D152F8A83F02E00E4AC8
:10068000A032136890F8444004F01C04A1408B434E
:10069000136090F84430416803F01C0399401368DC
:1006A000194311600021C163012280F8252080F8E0
:1006B0002410084670BD00000804024000000240FB
:1006C000F8FFFDBF70B5044600F008F90546601C50
:1006D00000D0641C00F002F9401BA042FAD370BDA8
:1006E00070470000044910B50A68024202D0086051
:1006F000FFF7F6FF10BD0000140401402DE9F84F8C
:10070000DFF898B100234FF0010C4FF0030A4FF0CF
:100710000F090BF1040EB9E00CFA03F4224070D07B
:100720004D68022D01D0122D0ED1DD0800EB850899
:10073000D8F820505E07F70E09FA07F6B5430E69A0
:10074000BE402E43C8F8206007685E0091F8048020
:100750000AFA06F508F00308AF4308FA06F848EA73
:100760000708C0F800804F68012F05D0022F03D082
:10077000112F01D0122F13D1D0F80880CF6828EAAA
:100780000508B74047EA08078760D0F804800F796A
:1007900028EA0408C7F300179F4047EA08074760A4
:1007A000D1F804806FEA0807BF0706D1C76AA743DC
:1007B000C8F3C0049C403C43C462C468AC438D6829
:1007C000B5402543C5604C68E4005ED5344C256EC9
:1007D00045F001052566246E23F0030504F00104AD
:1007E0000094304C2E19B4689D072F0F09FA07F5B5
:1007F000AC43B0F1904F05D02B4DA84204D1012558
:100800001CE042E0002519E0284DA84201D1022554
:1008100014E0274DA84201D103250FE0254DA84241
:1008200001D104250AE0244DA84201D1052505E0A7
:10083000224DA84201D1062500E00725BD402543F1
:10084000B560DBF800405D464E689443F60300D582
:1008500014432C60DEF8004075464E689443B6039E
:1008600000D514432C600D4D08352C684E68944318
:10087000F60200D514432C60084D0C352C684E68E8
:100880009443B60200D514432C605B1C0A6832FA0C
:1008900003F57FF441AF00F013B8000000040140FD
:1008A0000010024000000140000400480008004819
:1008B000000C0048001000480014004800180048D0
:1008C00018BCBDE8E08F0069084000D001207047E7
:1008D0000AB1816170478162704700000148006879
:1008E000704700006434002002480168491C016020
:1008F000704700006434002010B50024032000F08D
:100900008FF8002000F008F808B1012401E000F0A1
:100910001BF8204610BD000070B5054609484FF48D
:100920007A7100240068B0FBF1F000F0E6FD08B138
:10093000012404E000222946501E00F051F8204610
:1009400070BD0000683400201E4808B5016E41F0FB
:1009500001010166016E01F001010091816D41F01C
:1009600080518165806D00F080500090032000F080
:1009700057F8002211466FF00B0000F031F800220A
:1009800011466FF00A0000F02BF8002211466FF0BC
:10099000090000F025F800221146501F00F020F851
:1009A00000221146101F00F01BF800221146901E75
:1009B00000F016F80022BDE808401146501E00F075
:1009C0000FB800000010024000F01F02012191400A
:1009D0004009800000F1E020C0F8001170470000DD
:1009E000F0B40E4B1B680C46C3F30223C3F107059A
:1009F000042D00D90425191D072901D2002300E088
:100A0000DB1E012606FA05F1491E214099409E4051
:100A1000761E16403143F0BC01F0D0B90CED00E079
:100A2000064900F0070208684FF6FF03184040EA45
:100A30000220034A10430860704700000CED00E0FC
:100A40000000FA051649B0F5007F0868C0F34120A0
:100A500009D0022805D0086820F4C06040F4806006
:100A60000860002070470128FBD0086820F4C060AF
:100A700040F4007008600B483222006850430A4A74
:100A8000B0FBF2F0401C00E0401E4A69520501D55F
:100A90000028F9D148694005E3D5032070470000DC
:100AA000007000406834002040420F000248006897
:100AB00000F4C06070470000007000402DE9F84F5E
:100AC000044600270088E54D3E46010504F1200B51
:100AD0001DD5606E78B1B0F5800F11D0B0F5000F64
:100AE00004D0B0F5400F22D001270FE0E86840F4B1
:100AF0008030E8601BE00021201D01F071F903E067
:100B00000021584601F002FA070010D03E46208826
:100B1000C00426D5A06EC0B1B0F1807F1AD0B0F16C
:100B2000007F0DD0B0F1407F19D0012718E0D5F833
:100B30008800616E20F440000843C5F88800E6E7AD
:100B4000E86840F48030E86009E00021201D01F0F1
:100B500047F903E00021584601F0D8F90746F7B1FC
:100B60003E46206880033AD5A86D4FF00008C000CB
:100B700009D4A86D40F08050A865A86D4FF0010819
:100B800000F080500090DFF8D8A2DAF8001041F4AD
:100B90008071CAF80010FFF7A1FE814610E0D5F879
:100BA0008800A16E20F040700843C5F88800D8E79F
:100BB000FFF794FEA0EB0900022801D9032705E006
:100BC000DAF80000C005F3D5002F7CD04FEA070605
:100BD000B8F1000F03D0A86D20F08050A8652078F0
:100BE000C00707D0D5F88800A16B20F003000843A8
:100BF000C5F888002078800707D5D5F88800E16B14
:100C000020F00C000843C5F888002078400707D57D
:100C1000D5F88800216C20F030000843C5F8880022
:100C20002078000707D5D5F88800616C20F0C00057
:100C30000843C5F888002078C00607D5D5F8880095
:100C4000A16C20F440700843C5F888002078800625
:100C500007D5D5F88800E16C20F440600843C5F85A
:100C600088002088800507D5D5F88800E16D20F43C
:100C700040200843C5F888002088400507D5D5F8EE
:100C80008800216E20F440100843C5F888002078C1
:100C9000400607D5D5F88800216D20F44050084360
:100CA000C5F888002078000607D5D5F88800616D62
:100CB00020F440400843C5F888002088C00509D5C5
:100CC000D5F8880000E01CE0A16D20F44030084316
:100CD000C5F8880020884FF0006780044FF08068D6
:100CE0004FD5D5F88800E16E20F040600843C5F884
:100CF0008800E06EB8423CD1E86840F48010E860BB
:100D00003FE0D5F8900010F4407015D0D4F884106E
:100D1000814211D0D5F89000D5F8901020F44070A1
:100D200041F48031C5F89010D5F8901021F480314D
:100D3000C5F89010C5F89000C00710D0FFF7CEFDA1
:100D4000074641F2883906E0FFF7C8FDC11B494557
:100D500001D903263CE7D5F890008007F4D5D5F8F3
:100D60009000D4F8841020F440700843C5F8900037
:100D70002EE7404505D10121201D01F031F800B1D9
:100D800006462068000317D5D5F88800216F20F0AB
:100D900040600843C5F88800206FB84204D1E86875
:100DA00040F48010E86007E0404505D10121201D96
:100DB00001F016F800B106462068400317D5D5F8B3
:100DC0008800616F20F040600843C5F88800606FBC
:100DD000B84204D1E86840F48010E86007E040457C
:100DE00005D10121201D00F0FBFF00B1064620883F
:100DF00040041AD5D5F88800A16F20F04050084370
:100E0000C5F88800A06FB0F1805F03D0B0F1005F3B
:100E100005D00AE00221201D00F0E2FF03E00221DC
:100E2000584601F073F800B106462088000407D543
:100E3000D5F88800E16F20F080400843C5F88800AD
:100E40002068C00307D555F8880FD4F8801020F02B
:100E5000004008432860304600F004B8001002400B
:100E60000070004018BCBDE8E08F00002DE9F0479D
:100E70000F46050058D03F4E306800F00700B842DA
:100E800009D2306820F0070038433060306800F045
:100E90000700B84248D12878374CC0072CD0686882
:100EA000032811D0022812D0216898B149050029E1
:100EB0003ADAA16821F003010143A160FFF70EFDBA
:100EC000804641F2883910E021688901EFE7216806
:100ED0008903ECE78907EAE7FFF700FDA0EB0801CB
:100EE000494502D90320BDE8F087A068696800F091
:100EF0000C00B0EB810FEFD12878800705D5A068F2
:100F0000A96820F0F0000843A060306800F00700F6
:100F1000B8420BD9306820F00700384330603068A1
:100F200000F00700B84201D00120DCE72878400734
:100F300005D5A068E96820F4E0600843A06028783F
:100F4000000706D5A068296920F4605040EAC10076
:100F5000A06000F041F8A168084AC1F30311515C98
:100F600001F01F01C84006490860BDE8F0470020B5
:100F7000FFF7D2BC002002400010024034280008D5
:100F80006834002001480068704700006834002081
:100F90000548064900688968054AC1F30221515C89
:100FA00001F01F01C8407047683400200010024063
:100FB000742800080548064900688968054AC1F395
:100FC000C221515C01F01F01C84070476834002005
:100FD000001002407428000870B525490023184607
:100FE0008A68CC6812F00C0204F00306214C4FEA28
:100FF000640509D00C2A05D0042A26D0082A00D17D
:10100000284670BD012E10D10B681B0704D4D1F8FF
:101010009430C3F3032302E00B68C3F30313164EAB
:1010200056F823307AB10C2AEBD1C86800F00302DD
:10103000C868C0F30210401C022A08D0032A09D055
:10104000B3FBF0F008E0184670BD204670BDB4FB5D
:10105000F0F001E0B5FBF0F0CA68C968C2F30622FF
:101060005043C1F34161491C4900B0FBF1F070BD30
:10107000001002400024F400442800082DE9F84341
:1010800005007CD0FD4CA06800F00C06E06800F084
:1010900003072878C00661D576B10C2E01D1012F47
:1010A0000AD0A8690028206878D040F001002060AC
:1010B000FFF714FC804659E02068800702D5A86934
:1010C0000028DED0286A2168090703D5216801F0CD
:1010D000F00104E0D4F89410F02202EA11118842E1
:1010E00015D900F097FF002849D1206840F008008A
:1010F00020602068296A20F0F000084320606068C2
:10110000E96920F47F4040EA0120606015E0206832
:1011100040F0080020602068296A20F0F0000843B1
:1011200020606068E96920F47F4040EA0120606047
:10113000286A00F06FFF0028D6D1FFF74DFFA168A5
:10114000CF4AC1F30311515C01F01F01C840CD49E2
:1011500008600020FFF7E0FB00287DD12FE000BFF2
:10116000FFF7BCFBA0EB0800022876D820688007B8
:10117000F6D5206840F008002060206801E0BBE060
:101180000CE0296A20F0F000084320606068E969FB
:1011900020F47F4040EA0120606010E020F0010070
:1011A0002060FFF79BFB804606E000BFFFF796FB41
:1011B000A0EB08000228D8D820688007F6D4287849
:1011C000C00740D0082E18D00C2E01D1032F14D008
:1011D0006868B0F5803F17D0B0F5A02F206817D011
:1011E00020F480302060206820F48020206068682F
:1011F000E0B1FFF773FB804614E02068800322D53E
:101200006868002878D01EE0206840F48030EDE760
:1012100040F480202060F7E7FFF760FBA0EB0800B8
:101220006428A2D820688003F6D50CE0FFF756FBAF
:10123000804605E0FFF752FBA0EB0800642894D835
:1012400020688003F6D4287880073BD5042E11D07F
:101250000C2E04D1022F01E036E1A1E00AD0E868AB
:10126000002820681ED040F480702060FFF736FB15
:1012700007460CE0206840050CD5E8680028C1D07E
:1012800008E000BFFFF72AFBC01B022893D82068A4
:101290004005F7D56068297C20F0F85040EA0160ED
:1012A00060600FE020F480702060FFF717FB0746B6
:1012B00005E000BFFFF712FBC01B022870D82068B2
:1012C0004005F7D42878000729D568690028D4F8A4
:1012D000940012D040F00100C4F89400FFF7FEFA29
:1012E000074604E0FFF7FAFAC01B022858D8D4F8E2
:1012F00094008007F6D512E0EDE020F00100C4F87C
:101300009400FFF7EBFA074605E000BFFFF7E6FAA7
:10131000C01B022844D8D4F894008007F6D428785B
:10132000400768D5A06D0027C00008D4A06D40F02C
:101330008050A065A06D012700F0805000905248B9
:101340000168C90512D40168814641F480710160C9
:10135000FFF7C4FA804605E0FFF7C0FAA0EB0800EB
:1013600002281DD8D9F80000C005F5D5A8680128C5
:1013700017D00528D4F8900018D020F00100C4F848
:101380009000D4F8900020F0040000BFC4F8900052
:10139000A86841F28839D0B1FFF7A0FA804611E081
:1013A0006BE0D4F8900040F00100EFE740F004005B
:1013B000C4F89000F5E700BFFFF790FAA0EB080132
:1013C00049455AD8D4F890008007F5D50EE0FFF7CC
:1013D00085FA804606E000BFFFF780FAA0EB08011F
:1013E000494570D8D4F890008007F5D41FB1A06D9E
:1013F00020F08050A065A86AF0B30C2E6BD00228B4
:10140000206820F08070206004D0206810F0205FF9
:1014100047D04AE0FFF762FA064604E0FFF75EFABB
:10142000801B02284FD820688001F7D4286BE96A16
:10143000000110380843696BAA6B0902120941EADE
:1014400042410843A98F114A490802EB4151084320
:1014500095F840104908120102EB41610843E06031
:10146000206840F080702060E06840F08070E060AC
:10147000FFF734FA054610E02BE024E000100240AC
:101480003428000868340020007000400000E0FFAD
:10149000FFF724FA401B022815D820688001F7D5F1
:1014A00017E0E06820F00300E060E0680B490840C6
:1014B000E060FFF713FA054608E000BFFFF70EFAF9
:1014C000401B022802D90320BDE8F8832068800170
:1014D000F4D40020F8E70120F6E70000FFFFEEFE5D
:1014E0004FF0E0210428086903D020F004000861CF
:1014F000704740F00400FAE7704710B5401EB0F1A5
:10150000807F01D3012010BD4FF0E02460610F21E6
:10151000601700F053FC0020A0610720206100202C
:1015200010BD10B5FFF7E8FF10BD7047704770475A
:1015300070B590F83C20012A24D0012480F83C406A
:10154000022280F83D200268536895680E4EB24230
:1015500002D00E4EB24203D123F470064B683343DF
:1015600023F070060B688968334325F08005294312
:1015700053600268916080F83D40002180F83C1083
:10158000084670BD022070BD002C014000340140AF
:1015900010B5040003D094F83D0010B107E001201D
:1015A00010BD002084F83C00204600F00DF8022019
:1015B00084F83D00211D206800F0E6FD012084F83C
:1015C0003D00002010BD000008B500680B498842AE
:1015D00012D10B48016E41F400610166006E0022D9
:1015E00000F40060009011461820FFF7F9F9BDE8FB
:1015F00008401820FFF7E8B908BD0000002C0140A2
:101600000010024070B5044690F83C00012817D045
:10161000012584F83C50022084F83D00206882684F
:10162000324E324022F47F4282600868502839D01E
:101630000DDC202855D005DC98B3102843D150E0AC
:10164000022070BD30284CD040283CD141E06028B9
:1016500030D070280CD0B0F5805F03D0B0F5005FBB
:1016600031D112E020688168204A7032114016E0C2
:10167000CB68D1E90121206800F0E6FD2168886887
:10168000304040F0770088601DE0CB68D1E901214F
:10169000206800F0D9FD2068816841F480418160B4
:1016A00011E01EE0CA684968206800F0DFFD5021A3
:1016B000206806E0CA684968206800F0E8FD6021FB
:1016C000206800F0CBFD84F83D50002084F83C00F9
:1016D00070BDCA684968206800F0C8FD40212068D4
:1016E000EFE7226801461046EBE7000088FFFEFFA7
:1016F000704770B50446006801694FF00005C943A2
:10170000890715D4C168C943890711D4E91E01614D
:1017100001202077206880698007204602D0FFF7EB
:10172000E7FF04E000F0A7F8204600F0A5F82577D1
:1017300020680169C943490717D4C168C9434907EB
:1017400013D46FF0040101610220207720688069C2
:1017500010F4407F204602D0FFF7CAFF04E000F0FB
:101760008AF8204600F088F8257720680169C94387
:10177000090716D4C168C943090712D46FF00801DC
:101780000161042020772068C0698007204602D0CC
:10179000FFF7AEFF04E000F06EF8204600F06CF8B2
:1017A000257720680169C943C90617D4C168C943B0
:1017B000C90613D46FF0100101610820207720685A
:1017C000C06910F4407F204602D0FFF791FF04E08B
:1017D00000F051F8204600F04FF8257720680169A5
:1017E000C943C90708D1C168C943C90704D1891EC3
:1017F0000161204600F041F820680169C9430906EB
:1018000009D4C168C943090605D46FF0800101619C
:101810002046FFF78BFE20680169C943C90509D43A
:10182000C168C943090605D46FF48071016120467F
:10183000FFF77BFE20680169C943490609D4C168E6
:10184000C943490605D46FF040010161204600F00C
:1018500015F820680169C94389060BD4C168C943DA
:10186000890607D46FF0200101612046BDE8704071
:10187000FFF75DBE70BD704770477047704710B589
:10188000040003D094F8710010B107E0012010BDEE
:10189000002084F87000204600F026F8242084F808
:1018A00071002068016821F001010160204600F00C
:1018B00093FD0128EBD0606A10B1204600F0F9FCDE
:1018C0002068416821F4904141602068816821F0DE
:1018D0002A0181602068016841F001010160204611
:1018E000BDE8104000F049BD2DE9F0410646006812
:1018F000254986B0884244D12448016E41F4804194
:101900000166006E4FF0020800F480400590C02090
:10191000CDE9000800240320CDE90240072004900F
:10192000474669461A48FEF7E9FE1B4D19482860EC
:10193000C5E901748027C5E903476C61AC61EC61BE
:1019400028462C62FEF75EFE18B1D42113A000F0E9
:10195000C6FEF566AE620F48174D1438E5E802087A
:10196000102091C5144845F81449AC61EC612C6213
:10197000FEF748FE18B1E52108A000F0B0FEB566FC
:10198000AE6206B0BDE8F0810038014000100240B0
:101990000004004858000240383500202E2E2F53F6
:1019A00072632F73746D33326C3478785F68616C56
:1019B0005F6D73702E63000080350020FEE700002D
:1019C00010B511498AB00F4808600846FEF74FFD70
:1019D00000B1FEE70024009401940294039422468F
:1019E000694609480494FEF7B5FC00B1FEE71022F1
:1019F000694605480394FEF7ADFC002800D0FEE7D9
:101A00000AB010BD007400406C3400202DE9F04F86
:101A1000BD4887B0C16C41F01001C164C16C01F0D8
:101A200010010591C16C41F00401C164C16C01F069
:101A300004010591C16C41F00101C164C16C01F068
:101A400001010591C16C41F00201C164C16C01F05A
:101A500002010591C16C41F00801C164C06C002213
:101A600000F00800059040F21511A848FEF730FF7D
:101A7000002248F204114FF09040FEF729FF0022A7
:101A80004FF23401A248FEF723FF002243F2810106
:101A9000A048FEF71DFF00224FF410719E48FEF78C
:101AA00017FF40F21510009001200024CDE9010439
:101AB000694696480394FEF721FE984D6A20CDE9C9
:101AC0000005694602949148FEF718FE4FF4005055
:101AD00000909348CDE9010469468F48FEF70EFE59
:101AE0003F200B26CDE90006694602948A48FEF79E
:101AF00005FE032000900220CDE90104032003909D
:101B00000820049069464FF09040FEF7F7FD48F238
:101B1000041000900120CDE9010469464FF0904087
:101B20000394FEF7EBFD082000900220CDE90104AC
:101B30000120CDE9034069464FF09040FEF7DEFDFD
:101B4000C02000900220CDE901040320039005206D
:101B5000049069464FF09040FEF7D0FD0120CDE99A
:101B60000005694602946A48FEF7C8FD0220CDE9E7
:101B70000006694602946648FEF7C0FD4FF2340045
:101B800000900120CDE90104694661480394FEF705
:101B9000B5FD4FF4207000900220CDE90104062627
:101BA000CDE9034669465948FEF7A8FD4FF47C404D
:101BB00000900220CDE9010403204FF00A08CDE98E
:101BC000030869465148FEF799FD70024FF012096B
:101BD000CDE900090120029003204FF0040ACDE96D
:101BE000030A69464A48FEF789FD4FF4407B02200C
:101BF000CDF800B0CDE9010403200727CDE90307A4
:101C000069464448FEF77AFD4CF60440CDE90005EC
:101C1000694602943F48FEF771FD43F2810000904F
:101C20000120CDE9010469463A480394FEF766FDB8
:101C30004FF4107000900120CDE901046946364848
:101C40000394FEF75BFDB001CDE9000569460294FF
:101C50003148FEF753FD4FF40070CDE900046946AA
:101C60004FF090400294FEF749FDBD02022000951E
:101C7000CDE901040320CDE9030869464FF0904007
:101C8000FEF73CFD02200095CDE901040320CDE9DB
:101C9000030669462048FEF731FD02200090CDE999
:101CA0000104032003900520049069461948FEF7BB
:101CB00025FD782000900220CDE901040320CDE924
:101CC000030769461348FEF719FD0120CDF800B05F
:101CD000CDE901900320CDE9030A69460C48FEF7DF
:101CE0000DFD002211461720FEF77AFE1720FEF7A1
:101CF0006BFE002211462820FEF772FE2820FEF718
:101D000063FE07B000F00EB800100240001000485B
:101D100000040048000C00480008004800001110B2
:101D20000000211030BCBDE8C08F000010B5134882
:101D300088B011490024C0E900148460C4600461C3
:101D400044618461FFF724FC00B1FEE74FF480504A
:101D5000039003A90948FFF755FC00B1FEE7009482
:101D60000194694605480294FFF7E2FB002800D081
:101D7000FEE708B010BD0000002C014080340020B8
:101D80000C4810B50A4901604FF4E131416000216F
:101D900081600C22C160C0E904128161C1610162ED
:101DA0004162FFF76CFD002800D0FEE710BD000087
:101DB00000380140C0340020FEE770470907090ED3
:101DC000002806DA00F00F0000F1E02080F8141D72
:101DD000704700F1E02080F8001470477047000061
:101DE0002DE9F041444C05468846E068002681070D
:101DF00028680DD0E16801F00301814216D1A8B135
:101E0000E0686968C0F30210401C88420ED120E0EF
:101E1000012804D0022805D0032807D108E0216852
:101E2000890701E021684905002907DB01265FE0F9
:101E30002168890302D421684903F5E7E1686A68EB
:101E40006FF00F0321F0730103EB02121143014302
:101E5000E160206820F080602060FEF73FFD0746CB
:101E600005E000BFFEF73AFDC01B022837D8206806
:101E70000001F7D4B8F1000F18D0B8F1010F1ED04F
:101E8000287D4FF07E41400801EB4060A96840EAA0
:101E900001202169194A114008432061206840F05F
:101EA00080602060FEF71AFD07461AE0A868E9681E
:101EB0000002090940EA41402169114AEBE7288AFA
:101EC0001049400801EB4050A96840EA012021690F
:101ED0000D4AE0E7FEF702FDC01B022801D90326E8
:101EE00006E020680001F5D52069A9690843206152
:101EF0003046BDE8F081000000100240FF80FFF98D
:101F0000FF80FDFF0000E0FFFF809FFF2DE9F04113
:101F10003D4C06468846E0680025810730680DD0B4
:101F2000E16801F00301814216D1A8B1E06871684F
:101F3000C0F30210401C88420ED120E0012804D0DA
:101F4000022805D0032807D108E02168890701E0AD
:101F500021684905002907DB012551E02168890333
:101F600002D421684903F5E7E16872686FF00F0356
:101F700021F0730103EB021211430143E160206879
:101F800020F080502060FEF7A9FC074605E000BF66
:101F9000FEF7A4FCC01B022829D820688000F7D4D3
:101FA000B8F1000F15D0307C4FF07E41400801EBB6
:101FB0004060B16840EA01206169144A1140084359
:101FC0006061206840F080502060FEF787FC074683
:101FD0000FE0B068F1680002090940EA4140616918
:101FE0000B4AEBE7FEF77AFCC01B022801D9032558
:101FF00006E020688000F5D560697169084360617A
:102000002846BDE8F081000000100240FF80FFF983
:10201000FF80FDFFF8B51C4D06460024A86DC000EA
:1020200002D5FEF743FD0DE0A86D40F08050A86595
:10203000A86D00F080500090FEF738FDA96D21F0EA
:102040008051A965B0F5007F04D0802E07D94FF0EC
:1020500003040AE0802E08D9A02E01D804E001D1A3
:10206000022402E0702E00D101240848016821F00A
:10207000070121430160006800F00700A04201D081
:102080000120F8BD0020F8BD0010024000200240F1
:1020900070470000044910B501200860FEF724FCD9
:1020A000BDE81040FFF73DBA0000002030B5B9B0E0
:1020B000102001240090002506946020CDE90750EF
:1020C00002202821CDE90A04CDE90C410721CDE900
:1020D0000E1010906846FEF7D1FF00B1FEE70F200A
:1020E00033900320CDE934053695042133A8379584
:1020F000FEF7BCFE00B1FEE711A81F951194FEF794
:10210000DDFC00B1FEE74FF40070FEF79BFC00B170
:10211000FEE7FEF737FF4FF4FA51B0FBF1F0FFF79F
:10212000ECF90420FFF7DCF900221146501EFEF7FF
:1021300057FC39B030BD00000D48016841F4700112
:1021400001600C48016841F00101016000218160DB
:102150000268094B1A4002608214C260026822F4CD
:102160008022026081610249C003803908607047A3
:1021700088ED00E000100240FFFFF6EA0148FFF79B
:10218000B8BA0000803400202DE9F0470268264BE1
:10219000264D274E274F284C4FF0804A984209D0B1
:1021A000504507D0A84205D0B04203D0B84201D074
:1021B000A04204D122F0700C4A6842EA0C02DFF817
:1021C0007CC0DFF87C80DFF87C9098420FD05045CF
:1021D0000DD0A8420BD0B04209D0B84207D0A042DF
:1021E00005D0604503D0404501D0484503D122F4D5
:1021F0004075CA682A434D6922F080022A43026072
:102200008A68C2620A688262984207D0A04205D0FA
:10221000604503D0404501D0484501D109690163BB
:1022200001214161BDE8F087002C0140000400401D
:1022300000080040000C0040003401400040014014
:10224000004401400048014010B5846842EA03227E
:1022500024F47F440A432243826010BD826822F046
:1022600070020A4342F007018160704710B5036AAB
:10227000046A24F001040462846924F0F00444EA4E
:10228000021423F00A020A438461026210BD10B5F1
:10229000036A23F0100303628369046A23F4704322
:1022A00043EA023224F0A00343EA01118261016291
:1022B00010BD90F82410C90706D001684A68836AE7
:1022C00022F400321A434A6090F82410890706D598
:1022D00001684A68C36A22F480321A434A6090F85F
:1022E0002410490706D501684A68036B22F480224E
:1022F0001A434A6090F82410090706D501684A6815
:10230000436B22F400421A434A6090F82410C90635
:1023100006D501688A68836B22F480521A438A606A
:1023200090F82410890606D501688A68C36B22F4E8
:1023300000521A438A6090F82410490611D50168AA
:102340004A68036C22F480121A434A60016CB1F5AA
:10235000801F06D101684A68436C22F4C0021A4308
:102360004A6090F82410090606D501684A68806C16
:1023700022F4002202434A607047F8B50026044662
:102380004667FEF7ABFA0546206800686FF07E47A7
:10239000000708D52B4600224FF400112046009775
:1023A00000F06AF960B92068006840070AD52B463A
:1023B00000224FF480012046009700F05DF908B13B
:1023C0000320F8BD202084F8710084F8720084F89E
:1023D00070600020F8BD00002DE9F041044601685E
:1023E00080682369E6691843636910250027334331
:1023F0001843954A0B68954E334003430B602068A1
:102400004168E36821F44051194341602168A069A3
:10241000914201D0236A18438B6823F4306303434D
:102420008B608B4B21688B4899420DD1D0F8880086
:1024300010F0030006D001285AD0022856D00328F5
:1024400059D157E0012556E0834B99420BD1D0F882
:10245000880010F00C0047D0042849D0082845D047
:102460000C2848D146E07D4B99420BD1D0F888002A
:1024700010F0300038D010283AD0202836D030283C
:1024800039D137E0764B99420BD1D0F8880010F063
:10249000C00029D040282BD0802827D0C0282AD19E
:1024A00028E0704B99420ED1D0F8880010F44070AB
:1024B0001AD0B0F5807F1BD0B0F5007F16D0B0F5F4
:1024C000407F18D116E0914215D1D0F8880010F461
:1024D000406009D0B0F5806F0AD0B0F5006F05D02C
:1024E000B0F5406F07D105E0002504E0022502E0C9
:1024F000042500E008255C4B00264FF40040914283
:102500003DD135B1022D07D0042D07D0082D10D1B3
:1025100007E0FEF73DFD03E0184602E0FEF75CFD34
:10252000A8B3626802EB4201814202D8B0EB023FDD
:1025300001D9012775E0DFF834815DB1022D0CD09F
:10254000042D13D0082DF4D150082905401846F168
:10255000000105E0FEF71CFD0AE050084449F5E7DC
:102560000023FDF72DFEA0F5407156E0FEF734FD87
:102570006268010E0302500818187141F0E7E16922
:102580004FF6EF7881422FD1092DD2D200E048E0FA
:10259000DFE805F006092005230505052600C8E744
:1025A000FEF7F6FC01E0FEF705FD4100D4F804005B
:1025B00001EB5001B1FBF0F080B2A0F110014145F8
:1025C000B7D84FF6F0710140C0F3420001432068D4
:1025D000C16026E027496068EAE7FEF7FDFCE4E712
:1025E0004FF480316068E3E7092DA2D2DFE805F0FF
:1025F00006091E052205050525009AE7FEF7C8FC19
:1026000001E0FEF7D7FC0146606801EB500100BF16
:10261000B1FBF0F080B2A0F11001414589D82168EA
:10262000C860266638466666BDE8F081606803EBE0
:102630005001EDE7FEF7D0FCE5E7616800EB5100E3
:10264000B0FBF1F0E6E7000000800040F369FFEF27
:1026500000380140001002400044004000480040A3
:10266000004C0040005000400024F400FFFC0F002C
:10267000000024F40048E8012DE9F041984617468F
:102680000E460446069D1DE0681C1BD02DB1FEF7CA
:1026900025F9A0EB0800A84214D92068016821F4AC
:1026A000D07101602068816821F0010181602020E3
:1026B00084F8710084F87200002084F87000032010
:1026C000BDE8F0812068C06936EA000004D000202F
:1026D000B842D9D00020F3E70120F9E7FEE7FEE792
:1026E00002E008C8121F08C1002AFAD170477047DB
:1026F000002001E001C1121F002AFBD17047000039
:1027000008B5FEF7F9F8FFF7D1FCFFF77FF9444869
:10271000816C41F001018164806C002200F00100B5
:10272000009011460E20FEF75BF90E20FEF74CF9E3
:10273000002211460F20FEF753F90F20FEF744F94F
:10274000FFF73EF9FFF7F2FAFFF71AFB354C0020CE
:1027500004F10C014FF4007580468946A26806E03A
:1027600031F81030AB4201D129F81080401C904262
:10277000F6DB2D4F4FF400564FF4804B00212B48D1
:10278000FDF7B7FE10212948FDF7B3FE3146384664
:10279000FEF799F8A0B1002542F2107A02E06D1C14
:1027A000554505D031463846FEF78DF80028F6D05D
:1027B000002259461E48C4F80480FEF789F8DDE778
:1027C000012259461A48FEF783F820680128D5D11E
:1027D000C4F8008060684D46082239F810300021A6
:1027E0001248FDF779FE60680822102135F8103094
:1027F0000E48FDF771FED4E90101491E88420CDB49
:102800000023082219460948FDF766FE0023082226
:1028100010210648FDF760FEB0E7401C6060ADE7A0
:102820000010024000000020000800486C34002026
:102830000004004800000000000000000102030442
:1028400006070809A0860100400D0300801A060053
:1028500000350C0040420F0080841E0000093D003E
:1028600000127A000024F40000366E010048E801EE
:10287000006CDC0200000000010203049C28000838
:10288000000000206C3400008C0200087034000846
:102890006C3400205C050000F02600085200011393
:1028A0002C1A05021802025204084005FC01FC0122
:1028B00010D2041002FF0002015A022570520802D1
:1028C00096048E12F80212F402210867F8018E8134
:1028D00036100608020C021002F20C38613652FC67
:1028E00002816801127E817A814692F8768144A144
:1028F00022818EC1BE693E0112BCB204E4219C411A
:10290000DA2130D2080272044492F4D08186616ADE
:102910004146A160C14465108548C144856C218849
:10292000021304880217FC8881D0E1869604D8013E
:1029300012CCC5FA81880114CAB208CA45E0051450
:1029400054011842A55292F844051096896021025C
:10295000C1841004F401F002011442AD360429A22E
:10296000720C02251085082142B2F8C8C506818480
:10297000A14285D04182854E011082E1C4B60C8A05
:10298000B2F042A1820124400217F4409E041C03CD
:102990000213044045C652ECC20611F00241FE6D1E
:1029A0001604C1C0850096F08A65AE81C0F2003E73
:1029B0009A04CCA13E6140920C40A17E7E08600446
:1029C0007E08D803A57E52F4BE2140F2047E610643
:1029D000C17ED6F4BE7200BE92FCCE0112BCD2F80B
:1029E0003E417E5E0404052DB8048BFC0178DA08B4
:1029F0003AFAF43AC9BE658A5E0C56056144022370
:102A0000083ED2FC3E7208FE01107C0211F03E4DE1
:102A1000D40592103EB20C7C813CA5F6C17A7214AA
:102A20007C85D2CD3003A5F46DBA04613C72143CB0
:102A300065F6430002ACB2F87A4922960070321073
:102A40007A6DF804690C7EF87605B2F87A8DAA04DE
:102A5000213C50041402187A6D52057200784DC260
:102A600006AD6C048DAE053204768178B208F0456F
:102A7000CC413C6D70056DD8069200769204EE5202
:102A8000FCE26168A13A0211FC3A8DEC0569D8813B
:102A9000A2C1B0218C120CE8213A41E04D72042D04
:102AA0008E041EEC0E04E13AAD9209160822121CA7
:102AB0003A5E105A077204AC32E83A9E00E8069E6D
:102AC000F82408213812183A41728DCC0912F438D2
:102AD000213AC1DAADF2042136C13852007096E8CD
:102AE000208514216C52103681A8654452EC708503
:102AF0001E651241DA613665186D620525187EEC97
:102B00002205E1361220023A1C748DB408A134ED7E
:102B10007E0821A2C13602150436AD5606520C6C51
:102B20009A1CA2699E0110346D0C0596140CAD9C84
:102B30000741369EF08207813456100CC1346D6C0B
:102B4000060D12FE03C5740E130CA0068DB8037299
:102B5000F0342916921834ADA0044DE00365809E30
:102B6000F02C039E185C04EDCC058DE2035AEC5862
:102B700049447E189E030D107C074DDC03B2F868B3
:102B800061346DF4058DB007A908619C4D020461A4
:102B9000348D72090112346178A134F21034ADE23F
:102BA00004616A456C8134AD8403CD1009CD7E0B80
:102BB0004D2A047E142A04BE00B40A0E11F4D20475
:102BC000ED7E060D10B00BDEFC900BCD9C0BA568C6
:102BD0000D10E80BED400CEDD60BFE04940C0D141B
:102BE000AE0C0E11FC8C0CADCA0C0D14660CCD484D
:102BF0000C01143601123A0E13FCFC0C01203601B4
:102C0000146E022104A2012AD6051056E1360516DB
:102C1000440D208E0F01FF0201FF0201DC020D12A4
:102C2000D203CD92120D1A260301FF0201FF020109
:102C3000FF0201FF0201FF0201FF0201FF0201FF8B
:102C40000201FF0201FF0201FF0201FF0201FF0278
:102C500001A502CDB6120D1A081F0E1304F2120DB3
:102C600016D411CD081FCDD0160116448D601C8DD1
:102C700044188DB41E8DE016CD3613ED7013C13C93
:102C8000AD3C180D222A1261402D06185EF406187C
:102C90008D5A140D10C8126DE018412C1EF8FE1448
:102CA0001C0418022406171E14D4171C04EC01E49B
:102CB0009C175EF4FC1A7E0474188DB61B6DA81D5B
:102CC0002D3A181004EC01E0301004F40108401211
:102CD0003002121C421004E801D8021EEC34192DF7
:102CE000E0187E108C1B0D10AE19520C705EE08443
:102CF000152D8E1712248A1E1C9A171C08F401DC4D
:102D000001D001D42C181006080228022C9E2D7028
:102D10001872E4DC8DC21841CC4D54185EF43216A2
:102D200021CE121CA2214632D446120CA2322CA073
:102D300021E221B49E00D81C6D0819A1FC7A08106C
:102D400061481EE0081A10042002384850040802A6
:102D5000E49E3E1040185E14EA20AD2A1A9E0088B8
:102D60001C4DB219414816DC3632108E3210101E3E
:102D7000E0DA183E0CF0183E08381A2DFC17BE0495
:102D8000481C21DE2DE81E120C7E250A160464253F
:102D90001C3404EC01141C214812E0BA8FFC0130F1
:102DA0001B4DA417BA0C8E56F8EE121C4616282698
:102DB00016FC6432C8C6361CBE6148BEF4A421AD00
:102DC000B21F7EF4041736FCF42148160CC410041C
:102DD000D001C44C120058251E21A056D864DE0430
:102DE00090228D58204DD21921B412287E3224D63B
:102DF00012CC9016E0F21230481A244C32E0485EB1
:102E0000F81A1CFE10581F4D781929B4251E522C93
:102E10004832E44812E44830042C02344816E47680
:102E200056E4DA6DA403A9DA2DCE1A25FE1EDC665F
:102E30001A32107E12284816E01E52C490123CEA44
:102E400025F6290656ECD249C28D70174D861B1EF9
:102E5000E81403292A121C34323CC616D81E12C0AC
:102E600016120C8E3A403E1AE03E12D82A2D7818DF
:102E70002D221B2D2603AD822061D61EE0A618123E
:102E800018363E3C0003214821901A0C841244DA83
:102E9000214812C44A16E88C4DC2033E107A1C4DDC
:102EA00000045E08C00341481AF42C122C7E25B0A1
:102EB00021361EC018031200D812481416147A5670
:102EC000C0C21A20521228121EFC6C1B1EE47E0384
:102ED0009E00AA035AE0BC122C7E1630F832E84855
:102EE0001ED04A19122C481244F212EC121EBCFEDB
:102EF000032BFC01AA1A2CF42D1004699C2DB41C80
:102F000016046821481AE4881620221A348816F418
:102F1000F816C0B212F0361244921228121804C8E1
:102F200001B89A1AF49A7E2CB80361484D2C03120A
:102F3000F84836D8B229BE1E44380434040802DCEE
:102F40002212D85C3234DA21EC56B87C2DA004254C
:102F5000C43EF084032D74032DBA03320C483ED4D2
:102F6000B20432144821DA21C81AC0463004F801EC
:102F7000289212203612C49221DA2DEA04162C224D
:102F8000218036DCC43E1C4E0329662D6C041EE4F1
:102F900008031628A23E400E0556D85A25B4324CD6
:102FA000921404DC01B424490E4D4C0452E8C82D9F
:102FB000CE031224921EF042053ED018042D0A03BF
:102FC0002D0C0325D8214A12CCAC32104A123CEE0B
:102FD0001004D801B09412E0B83A38A0218216D07B
:102FE0001236FC364D5203214A4D1E031230703EFC
:102FF00034740436D4B632E44A12485E214A12B818
:10300000942112212629FC1EE8F004614A2D720445
:1030100081DC4D4A052D400429EC72C8F229EE12DC
:103020001CBC25BA16D03A32207025DE1ADC122DCF
:103030002A054DDA053EECF4045EE8761B2D121DE0
:103040002DF0052D38034D5C032DF0051E384C0680
:1030500029964906415E2DA0041EEC580412E05C3E
:103060002D36032D50052D721D7EE42A1C2D021EC7
:1030700032204C4DA8032DF6052D920429AC1AE4FC
:10308000E216B8882DCC035A40BE25F65EF4C20580
:103090003E0C5E069EDC44064D0E1D2D88032DA4BD
:1030A000052D0A0336201E3A20B07AB41E1A38C203
:1030B0002D02052D88032DCC04491C4D30065EF0F1
:1030C000D6061E200A0721622D0C035EE4EC0636AC
:1030D00020102DE4041AC4FC56ECC612203C45B462
:1030E0007E04B2063AE4205EF03E1C5E1054075E99
:1030F000F4A8054D06054D4E2016042241D62DEEAE
:10310000035E28D2055EDC000792289A2D4E062D1C
:103110007A045E0C4E1E2DA41E4DD0042D0E201ED2
:10312000F8DE054D4207257221B25E14E6062D5EDB
:1031300004213C5E18A607415E8DEC074DCC1E5E57
:1031400004FA1F2D560521F225B27624666D8A05F4
:103150006D88056DF8254D92084D5C1D6DA2084DDA
:10316000D4073618A42DBC032DAC032D74033E28C0
:10317000DA0549982DCE035E088A1E6DFC067E0492
:10318000261EAD50074DFE227E0076052DE6042D4D
:10319000AA062DAE053E34920765CA2DD6036DD81A
:1031A000076D1C246D88228D7221252C45982DB821
:1031B000082DEE0429DE25702540562C4269407EFC
:1031C000107C21CD560ACD660A5EF8C61E4D6620DB
:1031D0004D8A052D8C031AF8223E34640949225E7B
:1031E000DC12082124FC040402F812237E0052227F
:1031F00076F0467224522D48035AFC266DCC042DDD
:1032000046074DEC214DFA09ED9E214D520665A66B
:103210004D64065E14D4206D40072DF8095E1C2213
:10322000052D6A043ECCC6059E140E066D56069604
:103230000C50A5AE6DCA034D300972E0547A284097
:103240004DEC086DE224ADE40B85A04DBE0A4D1C8B
:103250000849A02D140A9218A821FE5E24BA05453B
:10326000B65EECA01F25006DC81DCD501F61545ED9
:10327000E804082DB00A2DDA034D66074D62084DAB
:103280008A077E0CA006290C4D02045E08DE23BED0
:10329000F84A2B699A4DBE235204AA855252E8BEC1
:1032A0005E24960781AA9E1C600BADA42B4DFE25C3
:1032B0006D400369A22DE82245544DE8044D500AA3
:1032C0002D94056D940741147E1444230514006D5C
:1032D000C023C1AC2D0A0C4D260549125E105209BF
:1032E0002D9E0545AC6D52264D02244DAC214D441A
:1032F000215E14000676E0427E284E0381AC921CCB
:10330000C05EE0A4046D2E26FE00082CC9024DD23A
:1033100004259A4DF6032D4A244D040C4D90214D61
:10332000800981AEAD6E21E1566DA6254DEA0449B6
:103330000645DE816C5E04EA2252086C4D9209ADAE
:10334000C40ACD3C21DE049A2B6D342449E28D223F
:10335000236D24277E0C2A2692F098CD7421CD8EE1
:1033600025A112AD4E0B6DE42661588DA42CED22E3
:103370002D9E04D02D8D5E046DC8294D48245E1409
:10338000300D8D2C28AD122ACDCE266D700FA1CC1C
:103390004DEE2241146D202A2D9A065210B0C1F62E
:1033A000850A85368D702C06150824C1B0ED760F80
:1033B000BE007628CD9A05ADCE28BEF87C2DCD4036
:1033C0002E4D6E2CA1B061C6011458AD7E2D051A8C
:1033D000B8A1DC8DFC23A58C0D12DA10DE04B42D0F
:1033E0000D129C31A1DA9EFC0E2BADCA2CED2E11D4
:1033F000011288A50C8D34048D3E0E0F16F8014085
:1034000030813206111092A1DE091252A9E48DF624
:103410002CBE009E0D8D3603A1AECD080ED20C6AD7
:103420000D107412EDDE2E0D12742F0D1218310DC9
:10343000120A33CD2E30E590890E0D14B6240112F8
:1034400056C1F40D103C24ADAA300D160C25011602
:1034500056A1AE0E1104A42F0E1B04922101107868
:10346000DD6A302D6134000400093D0000000000D9
:040000050800018965
:00000001FF
