:020000040800F2
:10000000C03800209D01000857160008AB120008F8
:1000100055160008430200080719000800000000F8
:10002000000000000000000000000000F9160008B9
:10003000450200080000000079160008FB160008C1
:10004000B7010008B7010008B7010008B7010008B0
:10005000B7010008B7010008B7010008B7010008A0
:10006000B7010008B7010008B7010008B701000890
:10007000B7010008B7010008B7010008B701000880
:10008000B7010008B7010008B7010008B701000870
:10009000B7010008B7010008B701000875020008A1
:1000A000B7010008C9170008B7010008B701000828
:1000B000B7010008B7010008B7010008B701000840
:1000C000B7010008B7010008B7010008B701000830
:1000D000B7010008B7010008B7010008B701000820
:1000E00047020008B7010008B7010008B70100087F
:1000F000B7010008B7010008B7010008B701000800
:10010000B7010008B7010008B7010008B7010008EF
:10011000B7010008B7010008B7010008B7010008DF
:10012000B7010008B7010008B7010008B7010008CF
:10013000B7010008B7010008B7010008B7010008BF
:10014000B7010008B7010008B7010008B7010008AF
:10015000B7010008B7010008B7010008B70100089F
:10016000B7010008B7010008B7010008B70100088F
:10017000B7010008B70100080000000000000000FF
:10018000B7010008B7010008DFF80CD000F018F83C
:100190000048004729190008C03800200648804759
:1001A00006480047FEE7FEE7FEE7FEE7FEE7FEE75C
:1001B000FEE7FEE7FEE7FEE7851700088901000875
:1001C000064C074D06E0E06840F0010394E80700A4
:1001D00098471034AC42F6D3FFF7DAFF701A0008E4
:1001E000901A000870B58D1810F8014B14F0030236
:1001F00001D110F8012B231106D110F8013B03E0C7
:1002000010F8016B01F8016B521EF9D1ABB110F877
:10021000012B04F00C048A1A0C2C03D0A2EB8412DC
:100220009B1C08E010F8014BA2EB0422F8E712F83F
:10023000014B01F8014B5B1EF9D5A942D4D3002034
:1002400070BDFEE7704710B54FF4806000F02AF9EA
:100250004FF4006000F026F94FF4005000F022F94E
:100260004FF4804000F01EF9BDE810404FF400400C
:1002700000F018B910B5202000F014F9402000F06B
:1002800011F9802000F00EF9BDE810404FF48070A5
:1002900000F008B92DE9F0470446407900271546DB
:1002A0000E46012809D04FF0010984F8059002207C
:1002B00020713068042803D044E00220BDE8F087B4
:1002C0004FF003080DBB00F0E5F9074605E000BF5D
:1002D00000F0E0F9C01B01280FD82068406B000433
:1002E000F6D4012000F0CFF82168B069086416E068
:1002F00000F0D0F9C01B012807D9206940F00800A0
:10030000206184F804800320D8E72068406B00282F
:10031000EEDB012000F0B7F82168B069486420687E
:10032000816C40F2FF32AA409143F269AA40114326
:1003300081642068C16CFF22AA409143326AAA40BE
:100340001143C1643069012808D12268916B1F20D4
:10035000A84081437069A840084390632268D06B2D
:100360000721A9408843B36831681943F3681943EA
:10037000A9400143D163206801684FF48042AA403C
:10038000914301602268116840F6FC70A8408143E7
:100390007068A8400843106020680168C022AA4025
:1003A0009143016084F804900020607186E770B585
:1003B000040003D02079002510B105E0012070BDB4
:1003C0006571204600F008F80220207125610120A7
:1003D0002071002070BD000000B500680C4987B096
:1003E000884213D10B48816D41F000518165806DC9
:1003F000694600F0005005903020009003200190E5
:10040000002002904FF0904000F058F807B000BD77
:10041000007400400010024018B5046800940068A1
:10042000104421B1143000900360002018BD083042
:10043000F9E730B54279012A12D001224271022334
:10044000037103681D6802FA01F425431D60002949
:1004500001680B6806D0C3F383430F2B0AD00DE06D
:10046000022030BDC3F383030F2B07D14B6843F049
:10047000010302E04B6843F002034B60027100216C
:100480004171084630BD70B5044600F003F90546D9
:10049000601C00D0641C00F0FDF8401BA042FAD3A1
:1004A00070BD7047044910B50A68024202D0086066
:1004B000FFF7F7FF10BD0000140401402DE9F84FCD
:1004C000DFF898B100234FF0010C4FF0030A4FF012
:1004D0000F090BF1040EB9E00CFA03F4224070D0BE
:1004E0004D68022D01D0122D0ED1DD0800EB8508DC
:1004F000D8F820505E07F70E09FA07F6B5430E69E3
:10050000BE402E43C8F8206007685E0091F8048062
:100510000AFA06F508F00308AF4308FA06F848EAB5
:100520000708C0F800804F68012F05D0022F03D0C4
:10053000112F01D0122F13D1D0F80880CF6828EAEC
:100540000508B74047EA08078760D0F804800F79AC
:1005500028EA0408C7F300179F4047EA08074760E6
:10056000D1F804806FEA0807BF0706D1C76AA7431E
:10057000C8F3C0049C403C43C462C468AC438D686B
:10058000B5402543C5604C68E4005ED5344C256E0B
:1005900045F001052566246E23F0030504F00104EF
:1005A0000094304C2E19B4689D072F0F09FA07F5F7
:1005B000AC43B0F1904F05D02B4DA84204D101259A
:1005C0001CE042E0002519E0284DA84201D1022597
:1005D00014E0274DA84201D103250FE0254DA84284
:1005E00001D104250AE0244DA84201D1052505E0EA
:1005F000224DA84201D1062500E00725BD40254334
:10060000B560DBF800405D464E689443F60300D5C4
:1006100014432C60DEF8004075464E689443B603E0
:1006200000D514432C600D4D08352C684E6894435A
:10063000F60200D514432C60084D0C352C684E682A
:100640009443B60200D514432C605B1C0A6832FA4E
:1006500003F57FF441AFBDE8F88F000000040140CE
:10066000001002400000014000040048000800485B
:10067000000C004800100048001400480018004812
:100680000069084000D0012070470AB181617047BD
:1006900081627047014800687047000064340020A0
:1006A00002480168491C0160704700006434002062
:1006B00010B5032000F088F8002000F005F800F0E5
:1006C00017F8002010BD000010B5044607484FF48D
:1006D0007A710068B0FBF1F000F0F7FB00222146D0
:1006E000501E00F051F8002010BD000068340020BA
:1006F0001E4808B5016E41F001010166016E01F06E
:1007000001010091816D41F080518165806D00F0A3
:1007100080500090032000F057F8002211466FF03F
:100720000B0000F031F8002211466FF00A0000F0D3
:100730002BF8002211466FF0090000F025F8002286
:100740001146501F00F020F800221146101F00F043
:100750001BF800221146901E00F016F80022BDE89A
:1007600008401146501E00F00FB800000010024073
:1007700000F01F02012191404009800000F1E020BB
:10078000C0F8001170470000F0B40E4B1B680C4617
:10079000C3F30223C3F10705042D00D90425191D55
:1007A000072901D2002300E0DB1E012606FA05F12D
:1007B000491E214099409E40761E16403143F0BCB0
:1007C00000F04ABF0CED00E0064900F0070208689F
:1007D0004FF6FF03184040EA0220034A1043086026
:1007E000704700000CED00E00000FA051549B0F577
:1007F000007F0868C0F3412009D0022805D00868AE
:1008000020F4C06040F48060086000207047012838
:10081000FBD0086820F4C06040F4007008600A480B
:100820000A4A0068B0FBF2F03222504300E0401E5A
:1008300010B14A695205FAD448694005E5D503204C
:1008400070470000007000406834002040420F00F4
:100850000248006800F4C06070470000007000406B
:100860002DE9F0470F46050058D03E4E306800F0A5
:100870000700B84209D2306820F0070038433060E2
:10088000306800F00700B84248D12878364CC007DD
:100890002CD06868032811D0022812D0216898B1A2
:1008A000490500293ADAA16821F003010143A1605A
:1008B000FFF7F0FE804641F2883910E02168890197
:1008C000EFE721688903ECE78907EAE7FFF7E2FE33
:1008D000A0EB0801494502D90320BDE8F087A068D4
:1008E000696800F00C00B0EB810FEFD12878800729
:1008F00005D5A068A96820F0F0000843A060306822
:1009000000F00700B8420BD9306820F007003843E8
:100910003060306800F00700B84201D00120DCE709
:100920002878400705D5A068E96820F4E06008430E
:10093000A0602878000706D5A068296920F46050D7
:1009400040EAC100A06000F01BF8A168074AC1F3AB
:100950000311515CC840064908600020FFF7B4FE4F
:100960000020BAE70020024000100240301A0008C0
:100970006834002001480068704700006834002097
:1009800030B52D49002318468A682C4C12F00C0F04
:100990004FEA640514D08A68C2F38102032A04D1A5
:1009A000CA6802F00302012A0AD08A68C2F38102EF
:1009B000012A19D08A68C2F38102022A16D016E0F1
:1009C0000A68120704D4D1F89420C2F3032202E08B
:1009D0000A68C2F303121A4B53F822308A6812F0E5
:1009E0000C0F04D1184602E0204600E028468A6831
:1009F000C2F38102032A1DD1C868CA6800F003004F
:100A0000C2F30212521C022804D0032805D0B3FB03
:100A1000F2F004E0B4FBF2F001E0B5FBF2F0CA68DA
:100A2000C968C2F306225043C1F34161491C490021
:100A3000B0FBF1F030BD0000001002400024F400D3
:100A4000401A00082DE9F84304007DD02078FF4DBE
:100A5000C0065DD5A86810F00C0F0AD0A069002868
:100A6000286873D040F001002860FFF713FE0646A7
:100A700055E02868800702D5A0690028E5D0216AE2
:100A80002868000703D5286800F0F00004E0D5F8D6
:100A90009400F02202EA1010814216D9084600F0B4
:100AA000EDFD002850D1286840F008002860286833
:100AB000216A20F0F000084328606868E16920F4AA
:100AC0007F4040EA0120686015E0286840F0080097
:100AD00028602868216A20F0F000084328606868D0
:100AE000E16920F47F4040EA01206860206A00F05C
:100AF000C5FD0028D6D1FFF743FFA968D44AC1F34A
:100B00000311515CC840D34908600020FFF7DCFDA9
:100B10002CE000BFFFF7BEFD801B02287ED82868AE
:100B20008007F7D5286840F0080028602868216A07
:100B300020F0F000084328606868E16920F47F40F5
:100B400040EA0120686011E0B2E0FFE720F0010018
:100B50002860FFF79FFD064605E000BFFFF79AFDFE
:100B6000801B0228DAD828688007F7D42078C007CD
:100B700048D0A868C0F3810002281DD0A868C0F33F
:100B80008100032803D1E868C043800714D060685F
:100B9000B0F5803F17D0B0F5A02F286817D020F40B
:100BA00080302860286820F4802028606068E0B1E8
:100BB000FFF770FD064614E02868800322D56068C0
:100BC000002875D01EE0286840F48030EDE740F43E
:100BD00080202860F7E700BFFFF75CFD801B6428DA
:100BE0009CD828688003F7D50CE0FFF753FD064634
:100BF00005E000BFFFF74EFD801B64288ED82868F3
:100C00008003F7D42078800742D5A868C0F381001C
:100C1000012816D0A868C0F3810000E0A9E00328ED
:100C200004D1E86800F0030002280AD0E068002838
:100C300028681DD040F480702860FFF72BFD064621
:100C40000BE0286840050BD5E0680028B9D007E024
:100C5000FFF720FD801B022884D828684005F7D5BF
:100C60006868217C20F0F85040EA016068600FE07D
:100C700020F480702860FFF70DFD064605E000BFF8
:100C8000FFF708FD801B022873D828684005F7D4B9
:100C90002078000729D560690028D5F8940013D082
:100CA00040F00100C5F89400FFF7F4FC064606E0AA
:100CB000FBE000BFFFF7EEFC801B022859D8D5F8F7
:100CC00094008007F6D510E020F00100C5F89400EC
:100CD000FFF7E0FC064604E0FFF7DCFC801B02287F
:100CE00047D8D5F894008007F6D42078400763D51C
:100CF000A86D0026C00008D4A86D40F08050A865FB
:100D0000A86D012600F08050009053480168C90585
:100D100011D40168804641F480710160FFF7BAFC8C
:100D2000074604E0FFF7B6FCC01B022821D8D8F81C
:100D30000000C005F6D5A068012815D00528D5F813
:100D4000900017D020F00100C5F89000D5F8900071
:100D500020F00400C5F89000A06841F28838C8B1BE
:100D6000FFF798FC074610E0D5F8900040F001002E
:100D7000F0E777E040F00400C5F89000F4E700BF2A
:100D8000FFF788FCC11B41456CD8D5F8900080075F
:100D9000F6D50CE0FFF77EFC074604E0FFF77AFC8F
:100DA000C11B414579D8D5F890008007F6D41EB113
:100DB000A86D20F08050A865A06AE0B3A968C1F3CF
:100DC0008101032972D00228286820F080702860F1
:100DD00011D02868000106D42868800003D4E86890
:100DE00020F00300E860E8681C490840E860FFF76D
:100DF00051FC044654E0FFF74DFC064605E000BFF9
:100E0000FFF748FC801B022847D828688001F7D4E8
:100E1000206BE16A000110380843616BA26B090284
:100E2000120941EA42410843A18F0D4A490802EBE9
:100E30004151084300E036E094F84010490812019F
:100E400002EB41610843E86028680CE000100240B2
:100E5000301A00086834002000700040FFFFEEFEEA
:100E60000000E0FF19E040F080702860E86840F082
:100E70008070E860FFF70EFC044604E0FFF70AFC10
:100E8000001B022809D828688001F7D50BE000BFB5
:100E9000FFF700FC001B022802D90320BDE8F883FD
:100EA00028688001F4D40020F8E7FFE70120F5E787
:100EB0004FF0E0210428086903D020F00400086105
:100EC000704740F00400FAE7704710B5401EB0F1DB
:100ED000807F01D3012010BD4FF0E02460610F211D
:100EE000601700F0B9FB0020A061072020610020FE
:100EF00010BD10B5FFF7E8FF10BD70477047704791
:100F000070B590F83C20012A24D0012480F83C40A0
:100F1000022280F83D200268536895680E4EB24266
:100F200002D00E4EB24203D123F470064B68334315
:100F300023F070060B688968334325F08005294348
:100F400053600268916080F83D40002180F83C10B9
:100F5000084670BD022070BD002C014000340140E5
:100F600010B5040003D094F83D0010B107E0012053
:100F700010BD002084F83C00204600F00DF802204F
:100F800084F83D00211D206800F028FC012084F831
:100F90003D00002010BD000008B500680B498842E4
:100FA00012D10B48016E41F400610166006E00220F
:100FB00000F40060009011461920FFF7E5FBBDE842
:100FC00008401920FFF7D4BB08BD0000002C0140E9
:100FD000001002400168CA6842F00102CA6000685D
:100FE000826807490A40062A08D082680A40B2F59A
:100FF000803F03D0016841F001010160002070478B
:10100000070001000168CA6822F00102CA60006896
:10101000016A41F21112114207D1016A9210114284
:1010200003D1016821F00101016000207047000038
:1010300070B5044690F83C00012817D0012584F8CB
:101040003C50022084F83D0020688268324E3240D5
:1010500022F47F4282600868502839D00DDC2028B5
:1010600055D005DC98B3102843D150E0022070BD64
:1010700030284CD040283CD141E0602830D0702846
:101080000CD0B0F5805F03D0B0F5005F31D112E035
:1010900020688168204A7032114016E0CB68D1E99F
:1010A0000121206800F0FAFB21688868304040F098
:1010B000770088601DE0CB68D1E90121206800F04D
:1010C000EDFB2068816841F48041816011E01EE001
:1010D000CA684968206800F0F3FB5021206806E0E8
:1010E000CA684968206800F0FCFB6021206800F0B5
:1010F000DFFB84F83D50002084F83C0070BDCA68D6
:101100004968206800F0DCFB40212068EFE7226896
:1011100001461046EBE7000088FFFEFF704770B500
:101120000446006801694FF00005C943890715D4DA
:10113000C168C943890711D4E91E016101202077E4
:10114000206880698007204602D0FFF7E7FF04E0AF
:1011500000F0A7F8204600F0A5F82577206801697F
:10116000C943490717D4C168C943490713D46FF06D
:1011700004010161022020772068806910F4407F1B
:10118000204602D0FFF7CAFF04E000F08AF82046AC
:1011900000F088F8257720680169C943090716D44B
:1011A000C168C943090712D46FF008010161042026
:1011B00020772068C0698007204602D0FFF7AEFF85
:1011C00004E000F06EF8204600F06CF82577206807
:1011D0000169C943C90617D4C168C943C90613D4F4
:1011E0006FF010010161082020772068C06910F4B9
:1011F000407F204602D0FFF791FF04E000F051F855
:10120000204600F04FF8257720680169C943C907D7
:1012100008D1C168C943C90704D1891E01612046AC
:1012200000F041F820680169C943090609D4C16882
:10123000C943090605D46FF0800101612046FFF71C
:101240005DFE20680169C943C90509D4C168C94365
:10125000090605D46FF4807101612046FFF74DFE49
:1012600020680169C943490609D4C168C9434906D0
:1012700005D46FF040010161204600F015F82068A8
:101280000169C94389060BD4C168C943890607D4DB
:101290006FF0200101612046BDE87040FFF72FBECE
:1012A00070BD7047704770477047FEE710B5114931
:1012B0008AB00F4808600846FFF779F800B1FEE7EA
:1012C000002400940194029403942246694609483C
:1012D0000494FEF7DFFF00B1FEE7102269460548DF
:1012E0000394FEF7D7FF002800D0FEE70AB010BD38
:1012F000007400406C3400202DE9F04FB84887B0EE
:10130000C16C41F01001C164C16C01F01001059184
:10131000C16C41F00401C164C16C01F0040105918C
:10132000C16C41F00101C164C16C01F00101059182
:10133000C16C41F00201C164C16C01F00201059170
:10134000C16C41F00801C164C06CDFF8989200F0F4
:1013500008000590002240F215114846FFF795F964
:10136000002248F204114FF09040FFF78EF900225E
:101370004FF234019C48FFF788F9002243F28101C3
:101380009A48FFF782F900224FF410719848FFF74E
:101390007CF940F21510009001270024CDE901747A
:1013A000694648460394FFF789F8DFF848826A20C7
:1013B000CDE90008694602944846FFF77FF87803B4
:1013C00000908D48CDE9010469468948FFF776F819
:1013D0003F2000900B20CDE9010469468448FFF7C7
:1013E0006DF803260225CDE9006502940820CDE9B9
:1013F000036069464FF09040FFF760F848F2041030
:101400000090CDE9017469464FF090400394FFF7D6
:1014100055F808200090CDE90154CDE9034769460D
:101420004FF09040FFF74AF8C020CDE90005029444
:101430000520CDE9036069464FF09040FFF73EF884
:101440000097CDE9018469466748FFF737F80B201C
:101450000095CDE9010469466348FFF72FF84FF284
:1014600034000090CDE9017469465F480394FFF7AA
:1014700025F84FF420700090CDE901540620CDE905
:10148000034069464846FFF719F84FF47C40CDE920
:10149000000502940A20CDE9036069464846FFF73B
:1014A0000DF8B0024FF0120ACDE9000ACDE902763C
:1014B0004FF0040B6946CDF810B04B48FEF7FEFF25
:1014C0003002CDE9000502AA4FF0070982E8500278
:1014D00069464648FEF7F2FF4CF60440CDE90008A5
:1014E000694602944148FEF7E9FF43F2810000900B
:1014F000CDE9017469463D480394FEF7DFFF4FF4E0
:1015000010700090CDE90174694639480394FEF7E4
:10151000D5FFF001CDE90008694602943448FEF792
:10152000CDFF2802CDE9000469464FF090400294B7
:10153000FEF7C4FF4FF4E0580A20CDF80080CDE953
:101540000360CDE9015469464FF09040FEF7B6FFC5
:101550000620CDF80080CDE90360CDE9015469464D
:101560002348FEF7ABFF05200095CDE90360CDE9E8
:10157000015469461D48FEF7A1FF7820CDE900051A
:1015800002AA694682E850021848FEF797FFC02079
:10159000CDE9000502AA694682E850021248FEF72A
:1015A0008DFF3002CDE9000ACDE902766946CDF81B
:1015B00010B00D48FEF782FF002211461720FFF7FA
:1015C000E3F81720FFF7D4F8002211462820FFF790
:1015D000DBF82820FFF7CCF807B0BDE8F08F00005B
:1015E000001002400010004800040048000C0048B1
:1015F00000080048000011100000211010B5144828
:1016000088B0124901604FF47A710024C0E90114D6
:101610000A21C0E9031444618461FFF7A1FC00B111
:10162000FEE74FF48050039003A90948FFF700FD3F
:1016300000B1FEE700940194694605480294FFF763
:101640005FFC002800D0FEE708B010BD002C014070
:1016500080340020FEE770470907090E002806DAEB
:1016600000F00F0000F1E02080F8141D704700F139
:10167000E02080F80014704770470000F8B51C4D5A
:1016800006460024A86DC00002D5FFF7E1F80DE082
:10169000A86D40F08050A865A86D00F080500090C3
:1016A000FFF7D6F8A96D21F08051A965B0F5007F4C
:1016B00004D0802E07D94FF003040AE0802E08D909
:1016C000A02E01D804E001D1022402E0702E00D146
:1016D00001240848016821F00701214301600068E6
:1016E00000F00700A04201D00120F8BD0020F8BDA5
:1016F0000010024000200240704710B5FEF7D0FFF6
:10170000BDE81040FFF7F5BB10B596B01020009073
:101710000120002460210690CDE907410221CDE996
:101720000A100C9028200D900720CDE90E01684684
:101730001091FFF787F900B1FEE70F201190032009
:10174000CDE912041494042111A81594FFF788F828
:1017500000B1FEE74FF40070FFF748F800B1FEE774
:10176000FFF708F94FF47A71B0FBF1F0FFF7ADFB2A
:101770000420FFF79DFB00221146501EFFF704F8DE
:1017800016B010BD0D48016841F4700101600C48AD
:10179000016841F001010160002181600268094B8C
:1017A0001A4002608214C260026822F48022026041
:1017B00081610249C00380390860704788ED00E00C
:1017C00000100240FFFFF6EA0249012008600248CB
:1017D000FFF7A5BC00000020803400202DE9F04771
:1017E0000268264B264D274E274F284C4FF0804A43
:1017F000984209D0504507D0A84205D0B04203D046
:10180000B84201D0A04204D122F0700C4A6842EAEA
:101810000C02DFF87CC0DFF87C80DFF87C90984217
:101820000FD050450DD0A8420BD0B04209D0B842DD
:1018300007D0A04205D0604503D0404501D04845BF
:1018400003D122F44075CA682A434D6922F0800210
:101850002A4302608A68C2620A688262984207D09C
:10186000A04205D0604503D0404501D0484501D194
:101870000969016301214161BDE8F087002C014045
:101880000004004000080040000C0040003401400B
:1018900000400140004401400048014010B5846808
:1018A00042EA032224F47F440A432243826010BDAB
:1018B000826822F070020A4342F00701816070479B
:1018C00010B5036A046A24F001040462846924F0F8
:1018D000F00444EA021423F00A020A43846102621B
:1018E00010BD10B5036A23F0100303628369046A14
:1018F00023F4704343EA023224F0A00343EA0111C7
:101900008261016210BDFEE702E008C8121F08C133
:10191000002AFAD170477047002001E001C1121F70
:10192000002AFBD170470000FEF7C2FEFFF7ECFE75
:10193000FFF7E2FCFFF7BAFCFFF760FE384C00202F
:1019400004F10C094FF400738046A26807E000BF61
:1019500039F810509D4201D129F81080401C904266
:10196000F6DB304F4FF4005A00212F48FEF761FD9F
:1019700010212D48FEF75DFD564651463846FEF7CC
:101980007FFEA8B1002542F2107B02E06D1C5D4590
:1019900005D031463846FEF773FE0028F6D0002207
:1019A0004FF480412148C4F80480FEF76EFEDBE767
:1019B000012291031D48FEF768FE1B481430FFF713
:1019C00009FB46464D4620680128FCD12660606828
:1019D0000822002135F810301348FEF71DFD60681D
:1019E0000822102135F810300F48FEF715FDD4E914
:1019F0000101491E884210D10023082219460A48D5
:101A0000FEF70AFD0023082210210748FEF704FD17
:101A100005481430FFF7F6FAA6E7401C6060D2E7ED
:101A200000000020000800486C340020000400483A
:101A3000000000000000000001020304060708097E
:101A4000A0860100400D0300801A060000350C003E
:101A500040420F0080841E0000093D0000127A0001
:101A60000024F40000366E010048E801006CDC023E
:101A7000901A0008000000206C340000E401000807
:101A8000642600086C340020540400001819000873
:101A9000520001132C1A05021802025204084005D4
:101AA000FC01FC0110D2041002FF0002015A0225C1
:101AB0007052080296048E12F80212F4022108678E
:101AC000F8018E8136100608020C021002F20C3862
:101AD000613652FC02816801127E817A814692F859
:101AE000768144A122818EC1BE693E0112BCB2043E
:101AF000E4219C41DA2130D2080272044492F4D0ED
:101B00008186616A4146A160C14465108548C1442F
:101B1000856C2188021304880217FC8881D0E18635
:101B20009604D80112CCC5FA81880114CAB208CA39
:101B300045E0051454011842A55292F84405109648
:101B400089602102C1841004F401F002011442AD45
:101B5000360429A2720C02251085082142B2F8C869
:101B6000C5068184A14285D04182854E011082E163
:101B7000C4B60C8AB2F042A1820124400217F4409C
:101B80009E041C030213044045C652ECC20611F029
:101B90000241FE6D1604C1C0850096F08A65AE81D3
:101BA000C0F2003E9A04CCA13E6140920C40A17E5E
:101BB0007E0860047E08D803A57E52F4BE2140F260
:101BC000047E6106C17ED6F4BE7200BE92FCCE01D8
:101BD00012BCD2F83E417E5E0404052DB8048BFC95
:101BE0000178DA083AFAF43AC9BE658A5E0C5605FD
:101BF00061440223083ED2FC3E7208FE01107C02C2
:101C000011F03E4DD40592103EB20C7C813CA5F6FD
:101C1000C17A72147C85D2CD3003A5F46DBA04610B
:101C20003C72143C65F6430002ACB2F87A49229645
:101C3000007032107A6DF804690C7EF87605B2F8FF
:101C40007A8DAA04213C50041402187A6D52057250
:101C500000784DC206AD6C048DAE053204768178F5
:101C6000B208F045CC413C6D70056DD80692007607
:101C70009204EE52FCE26168A13A0211FC3A8DEC4A
:101C80000569D881A2C1B0218C120CE8213A41E04B
:101C90004D72042D8E041EEC0E04E13AAD9209162D
:101CA0000822121C3A5E105A077204AC32E83A9EBF
:101CB00000E8069EF82408213812183A41728DCCAB
:101CC0000912F438213AC1DAADF2042136C1385292
:101CD000007096E8208514216C52103681A8654466
:101CE00052EC70851E651241DA613665186D620529
:101CF00025187EEC2205E1361220023A1C748DB4C0
:101D000008A134ED7E0821A2C13602150436AD5675
:101D100006520C6C9A1CA2699E0110346D0C05963B
:101D2000140CAD9C0741369EF08207813456100C8E
:101D3000C1346D6C060D12FE03C5740E130CA006A3
:101D40008DB80372F0342916921834ADA0044DE01A
:101D50000365809EF02C039E185C04EDCC058DE29B
:101D6000035AEC5849447E189E030D107C074DDC45
:101D700003B2F86861346DF4058DB007A908619C61
:101D80004D020461348D72090112346178A134F27C
:101D90001034ADE204616A456C8134AD8403CD102A
:101DA00009CD7E0B4D2A047E142A04BE00B40A0E0F
:101DB00011F4D204ED7E060D10B00BDEFC900BCDBD
:101DC0009C0BA5680D10E80BED400CEDD60BFE0446
:101DD000940C0D14AE0C0E11FC8C0CADCA0C0D1431
:101DE000660CCD480C01143601123A0E13FCFC0CA3
:101DF00001203601146E022104A2012AD6051056D4
:101E0000E1360516440D208E0F01FF0201FF02018D
:101E1000DC020D12D203CD92120D1A260301FF022D
:101E200001FF0201FF0201FF0201FF0201FF0201A7
:101E3000FF0201FF0201FF0201FF0201FF0201FF99
:101E40000201FF0201A502CDB6120D1A081F0E13E2
:101E500004F2120D16D411CD081FCDD01601164470
:101E60008D601C8D44188DB41E8DE016CD3613ED9B
:101E70007013C13CAD3C180D222A1261402D06188A
:101E80005EF406188D5A140D10C8126DE018412C1E
:101E90001EF8FE141C0418022406171E14D4171C66
:101EA00004EC01E49C175EF4FC1A7E0474188DB6F1
:101EB0001B6DA81D2D3A181004EC01E0301004F43D
:101EC000010840123002121C421004E801D8021E20
:101ED000EC34192DE0187E108C1B0D10AE19520C2D
:101EE000705EE084152D8E1712248A1E1C9A171C12
:101EF00008F401DC01D001D42C18100608022802D5
:101F00002C9E2D701872E4DC8DC21841CC4D5418F3
:101F10005EF4321621CE121CA2214632D446120C97
:101F2000A2322CA021E221B49E00D81C6D0819A178
:101F3000FC7A081061481EE0081A10042002384894
:101F400050040802E49E3E1040185E14EA20AD2AB8
:101F50001A9E00881C4DB219414816DC3632108E8C
:101F60003210101EE0DA183E0CF0183E08381A2D18
:101F7000FC17BE04481C21DE2DE81E120C7E250A2B
:101F8000160464251C3404EC01141C214812E0BA28
:101F90008FFC01301B4DA417BA0C8E56F8EE121CA4
:101FA0004616282616FC6432C8C6361CBE6148BEDA
:101FB000F4A421ADB21F7EF4041736FCF4214816B8
:101FC0000CC41004D001C44C120058251E21A05688
:101FD000D864DE0490228D58204DD21921B41228E5
:101FE0007E3224D612CC9016E0F21230481A244CDD
:101FF00032E0485EF81A1CFE10581F4D781929B4BB
:10200000251E522C4832E44812E44830042C023495
:102010004816E47656E4DA6DA403A9DA2DCE1A2523
:10202000FE1EDC661A32107E12284816E01E52C4CC
:1020300090123CEA25F6290656ECD249C28D70175B
:102040004D861B1EE81403292A121C34323CC61686
:10205000D81E12C016120C8E3A403E1AE03E12D81C
:102060002A2D78182D221B2D2603AD822061D61E25
:10207000E0A6181218363E3C0003214821901A0CA5
:10208000841244DA214812C44A16E88C4DC2033E39
:10209000107A1C4D00045E08C00341481AF42C124B
:1020A0002C7E25B021361EC018031200D812481409
:1020B00016147A56C0C21A20521228121EFC6C1B2B
:1020C0001EE47E039E00AA035AE0BC122C7E16304A
:1020D000F832E8481ED04A19122C481244F212EC89
:1020E000121EBCFE032BFC01AA1A2CF42D1004694D
:1020F0009C2DB41C16046821481AE4881620221A64
:10210000348816F4F816C0B212F03612449212282F
:10211000121804C801B89A1AF49A7E2CB8036148C0
:102120004D2C0312F84836D8B229BE1E4438043468
:10213000040802DC2212D85C3234DA21EC56B87C76
:102140002DA00425C43EF084032D74032DBA033260
:102150000C483ED4B20432144821DA21C81AC046D1
:102160003004F801289212203612C49221DA2DEAA6
:1021700004162C22218036DCC43E1C4E0329662D19
:102180006C041EE408031628A23E400E0556D85AD9
:1021900025B4324C921404DC01B424490E4D4C0495
:1021A00052E8C82DCE031224921EF042053ED018EC
:1021B000042D0A032D0C0325D8214A12CCAC321071
:1021C0004A123CEE1004D801B09412E0B83A38A09C
:1021D000218216D01236FC364D5203214A4D1E0381
:1021E0001230703E34740436D4B632E44A12485E7B
:1021F000214A12B8942112212629FC1EE8F004611C
:102200004A2D720481DC4D4A052D400429EC72C828
:10221000F229EE121CBC25BA16D03A32207025DE07
:102220001ADC122D2A054DDA053EECF4045EE87640
:102230001B2D121D2DF0052D38034D5C032DF005CF
:102240001E384C0629964906415E2DA0041EEC5806
:102250000412E05C2D36032D50052D721D7EE42AFC
:102260001C2D021E32204C4DA8032DF6052D920484
:1022700029AC1AE4E216B8882DCC035A40BE25F6E4
:102280005EF4C2053E0C5E069EDC44064D0E1D2D1E
:1022900088032DA4052D0A0336201E3A20B07AB4F7
:1022A0001E1A38C22D02052D88032DCC04491C4D61
:1022B00030065EF0D6061E200A0721622D0C035E52
:1022C000E4EC063620102DE4041AC4FC56ECC612C9
:1022D000203C45B47E04B2063AE4205EF03E1C5E2B
:1022E0001054075EF4A8054D06054D4E2016042235
:1022F00041D62DEE035E28D2055EDC000792289AB7
:102300002D4E062D7A045E0C4E1E2DA41E4DD004BB
:102310002D0E201EF8DE054D4207257221B25E14F7
:10232000E6062D5E04213C5E18A607415E8DEC0793
:102330004DCC1E5E04FA1F2D560521F225B27624DF
:10234000666D8A056D88056DF8254D92084D5C1DFA
:102350006DA2084DD4073618A42DBC032DAC032D57
:1023600074033E28DA0549982DCE035E088A1E6D57
:10237000FC067E04261EAD50074DFE227E0076052B
:102380002DE6042DAA062DAE053E34920765CA2D12
:10239000D6036DD8076D1C246D88228D7221252CE3
:1023A00045982DB8082DEE0429DE25702540562CC1
:1023B0004269407E107C21CD560ACD660A5EF8C681
:1023C0001E4D66204D8A052D8C031AF8223E34647A
:1023D0000949225EDC12082124FC040402F81223BD
:1023E0007E00522276F0467224522D48035AFC2673
:1023F0006DCC042D46074DEC214DFA09ED9E214D83
:10240000520665A64D64065E14D4206D40072DF873
:10241000095E1C22052D6A043ECCC6059E140E06DC
:102420006D5606960C50A5AE6DCA034D300972E08C
:10243000547A28404DEC086DE224ADE40B85A04DA4
:10244000BE0A4D1C0849A02D140A9218A821FE5E50
:1024500024BA0545B65EECA01F25006DC81DCD5001
:102460001F61545EE804082DB00A2DDA034D66079B
:102470004D62084D8A077E0CA006290C4D02045EB1
:1024800008DE23BEF84A2B699A4DBE235204AA8562
:102490005252E8BE5E24960781AA9E1C600BADA432
:1024A0002B4DFE256D400369A22DE82245544DE8D1
:1024B000044D500A2D94056D940741147E14442355
:1024C0000514006DC023C1AC2D0A0C4D2605491220
:1024D0005E1052092D9E0545AC6D52264D02244DCD
:1024E000AC214D44215E14000676E0427E284E0366
:1024F00081AC921CC05EE0A4046D2E26FE00082C68
:10250000C9024DD204259A4DF6032D4A244D040CE0
:102510004D90214D800981AEAD6E21E1566DA6250D
:102520004DEA04490645DE816C5E04EA2252086CDD
:102530004D9209ADC40ACD3C21DE049A2B6D3424A2
:1025400049E28D22236D24277E0C2A2692F098CD15
:102550007421CD8E25A112AD4E0B6DE42661588DF0
:10256000A42CED222D9E04D02D8D5E046DC8294D26
:1025700048245E14300D8D2C28AD122ACDCE266D48
:10258000700FA1CC4DEE2241146D202A2D9A0652D7
:1025900010B0C1F6850A85368D702C06150824C149
:1025A000B0ED760FBE007628CD9A05ADCE28BEF8E8
:1025B0007C2DCD402E4D6E2CA1B061C6011458ADBE
:1025C0007E2D051AB8A1DC8DFC23A58C0D12DA1026
:1025D000DE04B42D0D129C31A1DA9EFC0E2BADCA87
:1025E0002CED2E11011288A50C8D34048D3E0E0F9A
:1025F00016F8014030813206111092A1DE09125204
:10260000A9E48DF62CBE009E0D8D3603A1AECD083B
:102610000ED20C6A0D107412EDDE2E0D12742F0DF9
:102620001218310D120A33CD2E30E590890E0D149B
:10263000B624011256C1F40D103C24ADAA300D167B
:102640000C25011656A1AE0E1104A42F0E1B0492E8
:1026500021011078DD6A302D6134000400093D004D
:042660000000000076
:040000050800018965
:00000001FF
